:020000040800F2
:10000000C01000243903000873200008B51F000841
:10001000712000083F040008112A000800000000B9
:10002000000000000000000000000000512800084F
:100030004104000800000000752000085328000853
:100040005303000853030008530300085303000838
:100050005303000853030008530300085303000828
:100060005303000853030008530300085303000818
:100070005303000853030008530300085303000808
:1000800053030008530300085303000853030008F8
:1000900053030008530300085303000853030008E8
:1000A00053030008530300085303000853030008D8
:1000B00053030008530300085303000853030008C8
:1000C00053030008530300085303000853030008B8
:1000D00053030008530300085303000853030008A8
:1000E00053030008530300080000000053030008F6
:1000F0005303000853030008530300085303000888
:100100005303000853030008530300085303000877
:100110005303000853030008530300085303000867
:100120005303000853030008530300085303000857
:100130005303000853030008530300085303000847
:1001400000000000000000000000000000000000AF
:100150005303000853030008530300085303000827
:100160005303000853030008530300085303000817
:100170005303000853030008530300085303000807
:1001800053030008530300085303000853030008F7
:1001900053030008530300085303000853030008E7
:1001A00053030008530300085303000853030008D7
:1001B00053030008530300085303000853030008C7
:1001C00053030008530300085303000853030008B7
:1001D00053030008530300085303000853030008A7
:1001E0005303000853030008530300085303000897
:1001F0005303000853030008530300085303000887
:100200005303000853030008530300085303000876
:100210005303000853030008530300085303000866
:1002200053030008530300085303000800000000B4
:1002300053030008530300080000000053030008A4
:100240005303000853030008530300085303000836
:100250005303000853030008530300085303000826
:100260005303000853030008530300085303000816
:100270005303000853030008530300080000000064
:100280005303000853030008530300080000000054
:10029000000000005303000800F002F800F03CF8F2
:1002A0000AA090E8000C82448344AAF10107DA45D1
:1002B00001D100F031F8AFF2090EBAE80F0013F0E7
:1002C000010F18BFFB1A43F001031847B8280000BC
:1002D000D8280000103A24BF78C878C1FAD852074D
:1002E00024BF30C830C144BF04680C6070470000B0
:1002F0000023002400250026103A28BF78C1FBD82F
:10030000520728BF30C148BF0B6070471FB502F0CD
:100310002CFC1FBD10B510BD00F058F81146FFF7BA
:10032000F5FF02F0C1FB00F076F803B4FFF7F2FF2F
:1003300003BC00F07DF800000948804709480047E9
:10034000FEE7FEE7FEE7FEE7FEE7FEE7FEE7FEE785
:10035000FEE7FEE704480549054A064B70470000E2
:100360003529000899020008C0000024C0100024AC
:10037000C0080024C00800244FF0000200B5134656
:1003800094469646203922BFA0E80C50A0E80C50B5
:10039000B1F12001BFF4F7AF090728BFA0E80C5066
:1003A00048BF0CC05DF804EB890028BF40F8042B5F
:1003B00008BF704748BF20F8022B11F0804F18BFCC
:1003C00000F8012B7047704770477047754600F082
:1003D0002BF8AE4605006946534620F007008546D7
:1003E00018B020B5FFF7B6FFBDE820404FF000067B
:1003F0004FF000074FF000084FF0000B21F007010D
:10040000AC46ACE8C009ACE8C009ACE8C009ACE84F
:10041000C0098D46704710B50446AFF300802046F2
:10042000BDE81040FFF781BF00487047600000241E
:1004300001491820ABBEFEE7260002007047FEE728
:10044000704772B6FEE700002DE9F84F03247D4D9A
:1004500000234FF001094FF0B04B4FF00F0AE9E0D5
:1004600009FA03F73A4076D00E7906F00306012E1A
:1004700001D0022E18D1D0F808C04FEA430ECE6842
:1004800004FA0EF82CEA080C06FA0EF646EA0C06F8
:100490008660D0F804C00E792CEA070CC6F300166B
:1004A0009E4046EA0C0646600E79F643B6070BD02E
:1004B000C6684FEA43088F6804FA08FC26EA0C066F
:1004C00007FA08F73743C7600E7906F00306022ED5
:1004D00012D1DE080F694FEA437C00EB8606B64670
:1004E000366A4FEADC6C0AFA0CF807FA0CF726EACF
:1004F00008063743CEF820700F7906684FEA4308A4
:1005000007F0030704FA08FC07FA08F726EA0C06C6
:10051000374307604E6816F4403F1CD04A4E376898
:1005200047F00207376036689F0706F0020600961C
:1005300023F0030606F1B046B6463F0FD6F808642E
:10054000DFF808810AFA07FC404526EA0C0603D1C9
:100550004FF0000C41E06CE0DFF8F4C0604502D1E0
:100560004FF0010C39E0DFF8ECC0604502D14FF0EC
:10057000020C32E0DFF8E0C0604502D14FF0030C1E
:100580002BE0DFF8D8C0604502D14FF0040C24E026
:10059000DFF8CCC0604502D14FF0050C1DE0DFF85C
:1005A000C4C0604502D14FF0060C16E0DFF8B8C0B9
:1005B000604502D14FF0070C0FE0DFF8B0C0604596
:1005C00002D14FF0080C08E0DFF8A4C0604502D16A
:1005D0004FF0090C01E04FF00A0C0CFA07FC4CEA52
:1005E000060CCEF808C44F68DBF80060FF0226EA6C
:1005F000020600D516435F46CBF80060D1F804C070
:10060000DBF804605FEA8C2C26EA020600D516436C
:100610007E606E684F6826EA0206BF0300D5164367
:100620006E602E684F6826EA0206FF0300D5164367
:100630002E605B1C0A6832FA03F67FF411AFBDE846
:10064000F88F000080000058F4440258000002585F
:100650000004025800080258000C0258001002580A
:100660000014025800180258001C025800200258BA
:10067000002402580AB1816170470904FBE70000B9
:1006800001480068000C70470010005C0148806859
:10069000704700000000002402488168027811447D
:1006A0008160704700000024032010B500F078F846
:1006B00001F010F90F4A104914681368C4F30322BB
:1006C00003F00F038A5CC95C02F01F0201F01F01F6
:1006D000D0400A4A20FA01F11160094908600F2050
:1006E00000F010F808B1012010BD00F02BF8002038
:1006F00010BD000018440258742B0008100000249C
:100700000C00002470B50D4D04462878A0B14FF4BC
:100710007A71B1FBF0F00A490968B1FBF0F001F021
:1007200036FC48B9102C07D200222146501E00F09A
:1007300017F800206C6070BD012070BD000000241F
:100740000C000024054808B5016841F00201016071
:10075000006800F00200009008BD0000F444025858
:100760000E4BF0B41B680D46C3F30223C3F107061A
:10077000042E00D90426191D072901D2002300E008
:10078000DB1E012404FA06F19C40491E2940641E28
:10079000994014402143F0BC02F03BB90CED00E05D
:1007A000064900F0070210B54FF6FF040868044B35
:1007B000204040EA02201843086010BD0CED00E024
:1007C0000000FA05134970B50A68D243520705D5EF
:1007D000096801F00701814213D118E00A6822F08C
:1007E000070202430A60FFF751FF0A4D4FF47A7681
:1007F0000446083D07E000BFFFF748FF001BB0427A
:1008000001D9012070BD2868C0438004F4D40020C1
:1008100070BD00000C4802582DE9F84F1E461546E1
:100820008A460446FFF732FF814694F840000128CB
:100830000ED001274FF0000884F8407094F8410072
:10084000012807D05FF0020084F84080BDE8F88FEF
:100850000220FBE74221C4F8448084F841100022C2
:1008600020214B462046009601F0AEFE0028EBD139
:100870002168286888622168686848622168A868D9
:10088000C86220682969026822F4400242F48002AA
:1008900011430160E9684FF000622046CAF8281051
:1008A000514601F0E8FB01224B4608212046009604
:1008B00001F08AFE0028C7D122680821D16084F89F
:1008C0004170C1E72DE9F84F17468B460446FFF704
:1008D000DDFE824694F8400001280ED001264FF03C
:1008E000000884F8406094F84100012807D00225F0
:1008F00084F840802846BDE8F88F0220FBE74FF0DF
:100900000209C4F8448084F8419000222021534613
:100910002046009701F058FE0500E9D10022594613
:10092000204601F0A8FBDBF8240058B90122534609
:1009300002212046009701F047FE0500D8D121682A
:10094000C1F80C9084F84160D2E70000F8B5044685
:10095000FFF79CFE05461CB194F8410010B107E07A
:100960000120F8BD204600F08DF841F28830A064E7
:1009700020686FF0FF02A168036802EB012223F4F4
:10098000F85111430160A06C002220212B460090F9
:10099000204601F019FE0028E3D12268D4E907358A
:1009A0002679E168176845EA0665DFF844C019430F
:1009B000104B29430025012607EA0C073943116033
:1009C0002268D4E90517B4F810C0D2F804E039431E
:1009D0000EEA030E4EEA0C431943516021680A687F
:1009E00042F001020A60656484F84160F8BD0000CD
:1009F0002FFFFF00FEF8E0FF2DE9F843164688467A
:100A00000446FFF743FE034694F8400001280ED049
:100A1000012084F84000002794F84100012808D004
:100A20005FF0020584F840702846BDE8F883022094
:100A3000FBE7A06C8221676484F84110002220212A
:100A40000090204601F0C0FD0500EBD120687268DF
:100A5000016821F0080111430160706808280AD17B
:100A600022681021306810632068C1602068016826
:100A700041F4801101604FF040624146204601F090
:100A8000FAFACFE72DE9F041B6B00446142130A8B8
:100A9000FFF772FCC0216846FFF76EFC2949206809
:100AA00088424CD100204FF0007110221392CDE902
:100AB0000010684600F00AF908B1FFF7C2FC2248AE
:100AC000016841F480410160006800F48040359085
:100AD0001D480C30016841F040010160016801F0DF
:100AE00040013591016841F020010160006832AA9F
:100AF000022400F02000359003250A26012182E817
:100B000062004020CDE93004104830A9FFF79CFC7A
:100B10000921DFF83C8000274FF49860CDE933517C
:100B200030A981E891004046FFF78EFC30A92802E9
:100B300081E89100CDE933564046FFF785FC36B099
:100B4000BDE8F08100500052D44402580018025809
:100B5000001402582DE9F84F15460E460446FFF7DB
:100B600095FD82462068816994F8403000F12009A3
:100B7000012B0DD001274FF0000884F8407094F845
:100B80004120012A06D0022084F84080BDE8F88F79
:100B90000220FBE7C4F84480A6B3222284F8412057
:100BA0000269521CA2630269521C62632663426995
:100BB00022F0406242F080624261206881610EE072
:100BC0000621204601F000FDC8B999F80000216B0C
:100BD0000870206B401C2063A06B401EA063A06BBC
:100BE00053464FF0010200950028E9D14FF0020171
:100BF000204601F0E9FC10B922680221D16084F896
:100C00004170C1E7FFE7616C012041F008016164B8
:100C1000BAE700002DE9F84F15460E460446FFF7E7
:100C200035FD94F8401082462068012900F1200922
:100C30000ED001274FF0000884F8407094F841105E
:100C4000012907D05FF0020084F84080BDE8F88FEA
:100C50000220FBE7C4F8448086B3122184F84110D7
:100C60000169491CE1620169491CA162666241692E
:100C700021F0406141610EE00421204601F0A4FC16
:100C8000C8B9606A017889F80010606A401C606227
:100C9000E06A401EE062E06A53464FF001020095B0
:100CA0000028E9D14FF00201204601F08DFC10B977
:100CB00022680221D16084F84170C5E7FFE7616CCA
:100CC000012041F008016164BEE700002DE9FE4FFC
:100CD0000546DFF8E48350F8081B0024F64FC943AB
:100CE000019005F12800264608F12408009008012B
:100CF0001DD4A86E50B1B0F5801F0CD0B0F5001F08
:100D00000ED0B0F5401F1ED001240FE0386840F42B
:100D10000030386017E00198022101F079FC03E00F
:100D20000098022101F004FD04000CD0264628881A
:100D3000C043C00523D4A86D05281ED2DFE800F00B
:100D40000C11161B1B00AA6ED8F8001021F44011DC
:100D50001143C8F80010EAE7386840F40030386002
:100D600009E00198002101F053FC03E00098002104
:100D700001F0DEFC044674B100E001242646288818
:100D8000C043800528D4E86D80281ED00CDC90B1CB
:100D900040280ED114E0AA6DD8F8001021F0070108
:100DA0001143C8F80010EAE7C02813D0B0F5807FDF
:100DB00010D001240FE0386840F40030386009E0BA
:100DC0000198002101F024FC03E00098002101F0CB
:100DD000AFFC04469CB126462888DFF8DC92C0436D
:100DE00009F12C0940052CD4D5F8A800B0F5800FE6
:100DF00020D00DDCA0B1B0F5001F0FD115E0EA6DD9
:100E0000D8F8001021F4E0711143C8F80010E3E7AE
:100E1000B0F5C00F13D0B0F5000F10D001240FE0D3
:100E2000386840F40030386009E00198002101F092
:100E3000EFFB03E00098002101F07AFC04467CB14E
:100E400026462888C04300052DD4D5F8AC00B0F163
:100E5000007F21D00EDCA8B1B0F1807F10D116E068
:100E6000D5F8A820D9F8001021F460011143C9F881
:100E70000010E6E7B0F1407F13D0B0F1806F10D0E2
:100E800001240FE0386840F40030386009E0019830
:100E9000002101F0BDFB03E00098002101F048FCB7
:100EA000044674B126462868C04380011FD4E86C0C
:100EB000D8B110280FD0202812D0302815D0012406
:100EC00014E0D5F8AC20D9F8001021F0E06111430E
:100ED000C9F80010E7E7386840F40030386004E0F3
:100EE0000198022101F094FB044674B1264628883B
:100EF000C043C0042BD4286EB0F5005F20D00DDCB9
:100F0000A0B1B0F5805F0FD115E06B48EA6C2030DE
:100F1000016821F0300111430160E8E7B0F5405F5E
:100F200013D0B0F5804F10D001240FE0386840F4A2
:100F30000030386009E00198002101F069FB03E00E
:100F40000098002101F0F4FB04468CB12646288865
:100F5000C043800429D4686EB0F5403F23D010DC34
:100F600008B3B0F5803F14D0B0F5003F0FD115E0C5
:100F70002A6ED8F8001021F4E0411143C8F800109F
:100F8000E5E7B0F5802F0ED0B0F5A02F0BD00124EF
:100F90000AE00198012101F03BFB03E000980121E8
:100FA00001F0C6FB044694B126462888C04340049D
:100FB0002AD4D5F8B000B0F1405F23D010DC08B3DC
:100FC000B0F1805F14D0B0F1005F0FD115E06A6E10
:100FD000D8F8001021F4E0211143C8F80010E4E72C
:100FE000B0F1804F0ED0B0F1A04F0BD001240AE039
:100FF0000198012101F00CFB03E00098012101F0B0
:1010000097FB044674B126462888C04300041FD4C9
:10101000286FD8B1B0F1805F0ED0B0F1005F10D072
:10102000012414E0D5F8B020D9F8001021F0E041F7
:101030001143C9F80010E7E7386840F40030386021
:1010400004E00198012101F0E3FA044674B1264658
:101050002868C043C0011ED4A86CD0B101280ED0AE
:10106000022811D0032814D0012413E02A6FD8F8E5
:10107000001021F040511143C8F80010E8E738682B
:1010800040F40030386004E00198022101F0C0FA19
:101090000446ACB126462868DFF81CB0C043ABF16B
:1010A0001C0B400252D40548016841F48071016074
:1010B000FFF7ECFA824611E02C440258004802582F
:1010C000FA48AA6C016821F0030111430160E2E7CC
:1010D000FFF7DCFAA0EB0A00642835D8F448006872
:1010E000C005F5D58CBBDFF8C4A3B5F8B4100AF180
:1010F000240ADAF8000001F4407100F440708842DC
:1011000011D0DAF80010DAF8002021F4407142F42E
:101110008032CAF80020DAF8002022F48032CAF8BF
:101120000020CAF80010D5F8B400B0F5807F1AD1BD
:10113000FFF7ACFA029012E0FFF7A8FA0299411A01
:1011400041F2883081420AD9032426462878DFF804
:101150005CA3C0430AF1080AC00721D03CE0DAF8DA
:1011600000008007E8D5D5F8B410C1F301200328AA
:1011700058460DD0016821F47C510160B5F8B420C7
:10118000DAF80010C2F30B021143CAF80010DDE7D1
:10119000C84A036802EA111223F47C511143ECE7B8
:1011A000E86F182816D005DCA0B1082808D0102850
:1011B00004D10AE020280DD028280BD001240AE011
:1011C0000198012101F024FA03E00098012101F0C7
:1011D000AFFA044664B126462878C04380071ED47F
:1011E000A86F062819D2DFE800F0160C11161616A3
:1011F000EA6FDAF8001021F038011143CAF8001044
:10120000EAE70198012101F003FA03E000980121C7
:1012100001F08EFA04467CB100E0012426462878CD
:10122000C04340071FD4D5F89400062819D2DFE840
:1012300000F0160C11161616AA6FDAF8001021F03D
:1012400007011143CAF80010E9E70198012101F0F4
:10125000DFF903E00098012101F06AFA0446A4B125
:1012600000E0012426462878C04380062BD4D5F818
:101270009000B0F1405F24D011DC10B3B0F1805F7A
:1012800015D0B0F1005F10D116E0D5F89420D9F850
:10129000001021F007011143C9F80010E3E7B0F195
:1012A000804F0ED0B0F1A04F0BD001240AE001987E
:1012B000002101F0ADF903E00098022101F038FAB5
:1012C000044694B126462878C04340062BD4D5F86E
:1012D0009C00B0F5406F24D011DC10B3B0F5806FE6
:1012E00015D0B0F5006F10D116E0D5F89020DAF8DF
:1012F000001021F0E0411143CAF80010E3E7B0F517
:10130000805F0ED0B0F5A05F0BD001240AE00198F9
:10131000002101F07DF903E00098022101F008FAB4
:10132000044694B126462878C04300062BD4D5F84D
:10133000A000B0F5C04F24D011DC10B3B0F5005FB1
:1013400015D0B0F5804F10D116E0D5F89C20D9F813
:10135000001021F4E0511143C9F80010E3E7B0F5A3
:10136000004F0ED0B0F5204F0BD001240AE00198B9
:10137000002101F04DF903E00098022101F0D8F9B5
:10138000044654B126462878C04300071ED4D5F839
:101390008400B0F5805F0AD00FE0D5F8A020D9F81E
:1013A000001021F460411143C9F80010EBE70098E8
:1013B000022101F0BDF900B10126D5F88420DAF848
:1013C000001021F440511143CAF800102878C0439E
:1013D000C00613D4D5F89800B0F5807F05D10098E9
:1013E000022101F0A5F900B10126D5F89820D9F81D
:1013F000001021F440711143C9F800102868C0435F
:10140000000316D4D5F8A40038B1B0F5803F09D058
:10141000B0F5003F0BD001240AE00198002101F053
:10142000F7F803E00098022101F082F904468CB13C
:1014300026462868C043400322D4D5F88800B0F57A
:10144000801F11D0B0F5001F13D0B0F5401F15D08C
:10145000012414E0D5F8A420D9F8001021F440317B
:101460001143C9F80010E4E7386840F400303860F0
:1014700004E00098012101F05BF904465CB12646C6
:101480002868C043C00323D4286DA8B1B0F5803FBD
:1014900017D001241BE0D5F88820DAF8001021F4D9
:1014A00040111143CAF80010EAE700004C4402580A
:1014B00000480258CFFFFF00386840F40030386021
:1014C00004E00198022101F0A3F80446E4B12646A5
:1014D0002868C043800005D40098022101F028F953
:1014E00000B101262868C04380031BD4D5F88000D2
:1014F000B0B1B0F5807F0FD0B0F5007F10D0B0F55F
:10150000407F0DD001240CE05A482A6D016821F477
:10151000803111430160DBE7386840F40030386007
:10152000ECB326462868C043C00207D46A6FD8F8D7
:10153000001021F000411143C8F800102868C04392
:10154000C00008D4D5F8B820DBF8001021F48041A1
:101550001143CBF800102868C043800207D4EA6E1C
:10156000D8F8001021F080711143C8F800102868E5
:10157000C04340000CD4DBF8001021F40041CBF84C
:101580000010DBF80010D5F8BC201143CBF8001098
:101590002868C04308D437486A6D016800E018E045
:1015A00021F04051114301602868C043000208D473
:1015B000D5F88C20DAF8001021F440011143CAF864
:1015C000001028790024C04300F0010020430AD015
:1015D0000FE0D5F88020DAF8001021F440711143B3
:1015E000CAF800109EE70198002101F011F800B13F
:1015F00006462879C04300F00200204305D1019837
:10160000012101F005F800B106462879C04300F039
:101610000400204305D10198022100F0F9FF00B138
:1016200006462879C04300F00800204305D1009801
:10163000002101F07DF800B106462879C04300F092
:101640001000204305D10098012101F071F800B18C
:1016500006462879C04300F02000044304D10098D6
:10166000022101F065F800B916B10120BDE8FE8F36
:101670000020FBE74C4402582DE9F05F04000F46C0
:101680007ED0DFF83882D8F8000000F00F00B842B2
:101690000CD2D8F8001021F00F013943C8F800101F
:1016A000D8F8000000F00F00B84269D12078844DCE
:1016B00040070AD52069296801F07001884204D9E1
:1016C000296821F070010143296020787C4E361D85
:1016D00000070AD56069316801F07001884204D9B9
:1016E000316821F07001014331602078C0060AD5CD
:1016F000A069316801F4E061884204D9316821F4BD
:10170000E061014331602078DFF8B4B180060BF16D
:10171000080B0CD5E1695846DBF8002002F0700296
:10172000914204D9026822F070020A4302602078D4
:1017300080070AD5E068296801F00F01884204D9C2
:10174000296821F00F01014329602078C0073ED0AD
:101750005B49A2682868183920F47060104328603B
:101760006068022818D0032819D00968012819D008
:10177000490700294ADADFF848A1AAF1080A00E07F
:1017800044E0DAF8002022F007020243CAF8002001
:10179000FEF77CFF814612E009688903E9E70968E2
:1017A0008901E6E7C905E4E7FEF770FFA0EB090150
:1017B00041F28830814202D90320BDE8F09F616880
:1017C000DAF8000000F03800B0EBC10FECD120785F
:1017D00080070AD5E068296801F00F01884204D229
:1017E000296821F00F0101432960D8F80010404614
:1017F00001F00F01B9420BD9016821F00F01394303
:101800000160006800F00F00B84201D00120D4E769
:10181000207840070AD52069296801F070018842C4
:1018200004D2296821F07001014329602078000763
:101830000AD56069316801F07001884204D23168CC
:1018400021F07001014331602078C0060AD5A069FB
:10185000316801F4E061884204D2316821F4E0612A
:1018600001433160207880060CD5E1695846DBF8E9
:10187000002002F07002914204D2026822F070024D
:101880000A43026000F026F80E492A682B68C2F36A
:10189000032203F00F038A5CC95C02F01F0201F00F
:1018A0001F01D040084A20FA01F111600749086081
:1018B00007480068BDE8F05FFEF724BF0020005233
:1018C00018440258742B0008100000240C00002457
:1018D00004000024454970B545480968434B103B56
:1018E00011F0380208D00111082A03D0102A0BD0B9
:1018F000182A0BD0084670BD19688906FBD51968EF
:10190000C1F3C101C84070BD3A4870BD3749374D79
:1019100018310C1D24350A68096826682D6802F004
:10192000030406F00102C1F30511C5F3CC0515FB54
:1019300002F200EE102AB8EE400AE9B32F4ADFEDBA
:101940002E0AB7EE001A6CB1DFED2D1A012C01D072
:10195000022C43D002EE101A1068F8EE422A81EEF3
:10196000A22A1EE01C68A40611D51B6801EE901A7D
:101970001168C3F3C103F8EE612AD84001EE900A62
:10198000C1F30800F8EE611A81EEA22A0BE001EE25
:10199000901ADFED1C2A00BFF8EE611A106882EE83
:1019A000A12AC0F3080001EE900AF8EE611A40EE99
:1019B000201A31EE810A00E015E022EE000A1068DC
:1019C000C0F34620401C00EE900AF8EE600A80EE5C
:1019D000201ABCEEC10A10EE100A70BD01EE901A7A
:1019E000DFED092AD8E7002070BD0000104402583E
:1019F0000090D00340787D01000000393044025847
:101A00000024744A0024744C20BCBE4B2DE9F05FC6
:101A100004007DD0FF4F2078FE4D1837DFF8F49397
:101A2000103DC00748D0D9F80000396800F03800F0
:101A3000102815D0182803D101F0030002280FD078
:101A40006068B0F5803F12D010B1B0F5A02F18D06B
:101A5000286820F480302860286820F4802009E07D
:101A60002868800328D560680028D2D024E0286840
:101A700040F480302860606888B1FEF707FE0646B3
:101A800009E0286840F480202860F0E7FEF7FEFDBA
:101A9000801B64286FD828688003F7D50CE0FEF718
:101AA000F5FD064605E000BFFEF7F0FD801B64284B
:101AB000F0D828688003F7D4207841F20308D54E87
:101AC0000C3E800769D5D9F80000396810F038005D
:101AD0000ED0182801D188070AD0E06890B3296891
:101AE00021F0190101432960FEF7D0FD824631E063
:101AF0002868400702D5E06800288AD0E168286895
:101B000020F0190008432860FEF7C0FD824607E078
:101B1000DFE000BFFEF7BAFDA0EB0A000228B9D84B
:101B200028684007F6D500BFFEF7AAFD40451BD840
:101B30002069402812D0316821F47C3141EA00301C
:101B400030602AE018E000BFFEF7A0FDA0EB0A001D
:101B500002289FD828684007F6D5E5E7306820F4CA
:101B60007C3040F40030EBE7207C316821F0FE410E
:101B700041EA0060E4E70DE1286820F001002860F8
:101B8000FEF784FD824605E0FEF780FDA0EB0A002B
:101B900002288DD828684007F6D42078C0065DD585
:101BA000D9F80000DFF86CB2396800F03800ABF10A
:101BB000040B082810D0182803D101F003000128D5
:101BC0000AD0E0690028286838D040F080002860FA
:101BD000FEF75CFD824623E02868C00523D5E06956
:101BE000802876D11FE0206A202821D0316821F09A
:101BF000F84141EA8060306030E000BF94F8201086
:101C0000DBF8002022F07C5242EA0161CBF80010A0
:101C100024E000BFFEF73AFDA0EB0A00022898D8A6
:101C20002868C005F6D5FEF72BFD4045E6D8DAE773
:101C3000306820F0F84040F08040DCE720F0800081
:101C40002860FEF723FD064605E000BFFEF71EFDF7
:101C5000801B02289DD82868C005F7D4207800078B
:101C600029D56C486169643000298046016811D02B
:101C700041F001010160FEF709FD064605E000BFE5
:101C8000FEF704FD801B0228C9D8D8F800008007A1
:101C9000F6D510E021F001010160FEF7F7FC0646E1
:101CA00005E000BFFEF7F2FC801B022872D8D8F8CE
:101CB00000008007F6D42078800623D5A06900288C
:101CC000286810D040F480502860FEF7DFFC0646FC
:101CD00005E036E1FEF7DAFC801B02285AD82868B6
:101CE0008004F7D50EE020F480502860FEF7CEFC8B
:101CF000064604E0FEF7CAFC801B02284AD8286882
:101D00008004F7D4207840074FD5DFF80C81D8F84D
:101D1000001041F48071C8F80010FEF7B7FC0646C9
:101D200005E000BFFEF7B2FC801B642832D8D8F86B
:101D30000000C005F6D5374EA068603601280AD0ED
:101D400008B1052813D0306820F0010030603068F9
:101D500020F0040002E0306840F001003060A0682C
:101D600041F2883A90B1FEF791FC80460AE0306873
:101D700040F004003060EEE7FEF788FCA0EB0801BD
:101D8000514507D830688007F6D50EE0FEF77EFC97
:101D9000804607E084E000BFFEF778FCA0EB080176
:101DA00051457DD830688007F6D4606AB0B3DFF85B
:101DB0006480D9F8001008F120084FF6F87B08F18C
:101DC0000409C1F3C2010329A8F1040A69D0022859
:101DD000286820F08070286003D0FEF757FC044686
:101DE00084E0FEF753FC064605E000BFFEF74EFC1C
:101DF000801B022877D828688001F7D4E26A40F275
:101E0000F331386854F8283F884340EA02101843F9
:101E1000386004E01044025800480258B5E0217BC5
:101E2000434622894FF4FE0C208A4FF0FE474902B8
:101E3000267D521E401EA1F50071C2F308088AB229
:101E4000761E0CEA004042EA08020243504607EAC6
:101E500006610A431A60DAF8002022F00102CAF88B
:101E60000020D9F80020266A22EA0B0242EAC602C4
:101E7000C9F80020DAF80010A26921F00C01114322
:101E8000CAF800100168E26921F002011143016003
:101E9000016841F480310160016841F4003101E0E2
:101EA00021E027E00160016841F4802101600168C0
:101EB00041F001010160286840F080702860FEF761
:101EC000E5FB044605E000BFFEF7E0FB001B02282F
:101ED00009D828688001F7D557E000BFFEF7D6FB88
:101EE000001B022802D90320BDE8F09F286880016A
:101EF000F4D44AE039680128D8F8000021D0A26A59
:101F000001F0030393421CD1E26AC1F305118A4236
:101F100017D1216BC0F30802491E8A4211D1616BAF
:101F2000C0F34622491E91420BD1A16BC0F3064279
:101F3000491E914205D1E16BC0F30660491E814202
:101F400001D00120D0E7A16C4E46D9F80000C0F3C3
:101F5000CC00814219D0DAF80000554620F001008B
:101F6000CAF80000FEF792FB4FEA0007FEF78EFB6F
:101F7000B842FBD0A26C306820EA0B0040EAC200F5
:101F80003060286840F0010028600020ACE7401E67
:101F9000B0F1807F10B501D3012010BD4FF0E024D7
:101FA00060610F21601700F034FD0020A06107215F
:101FB000216110BDFEE7000030B587B014216846EE
:101FC000FEF7DAF91A48016841F48071016001688E
:101FD00001F480710591016841F0400101600168E0
:101FE00001F040010591016841F080010160016844
:101FF00001F080010591016841F020010160006855
:102000004FF480740B4D002200F020002146059013
:102010002846FEF72FFB002100940120CDE90101A5
:10202000284603916946FEF70FFA07B030BD00005D
:10203000E0440258002002580C48042210B50A4C13
:10204000162300210460C0E90112C0E903134161B5
:102050008161C1610162FEF779FC002803D0BDE80F
:102060001040FEF7EEB910BD0050005214000024DD
:10207000FEE7FEE770472DE9F0434B6A4FF04065FD
:102080002BB1AA4203D004688B6A5B1E23618B6963
:10209000002B68D00C6AB4B303688C68DC61CC692F
:1020A000FCB1D1E90B38D1F824C04E6B8F8A43EADA
:1020B000080346EA0C0633430E6A43EA8743D1E934
:1020C000037C43EA0C0333438E693B430F6823438D
:1020D000046833433B4365E0006849688161BDE8BB
:1020E000F083D1E90B364F6A4C6B8D8A33433C4306
:1020F0000E6923430C6A43EA85438D6933430968BB
:1021000023432B4362E0FFE7CC69B4F1000918D008
:10211000D1E90B484F6A4E6BB1F814C044EA080489
:102120003E430F683443CE6844EA8C44344344EA67
:1021300009041C4303683C431443AA425C61CBD1AD
:10214000CDE7D1E90B464F6A4D6BB1F814C034436B
:102150003D4300682C43096844EA8C441C430C430B
:1021600014434461BBE70B6AABB303688C68DC6162
:10217000CC69E4B1D1E90B38D1F824C04E6B8F8A19
:1021800043EA080346EA0C0633430E6A43EA8743F0
:10219000D1E9037C43EA0C0333438E693B43234379
:1021A000046833431343AA42636195D197E7D1E9A9
:1021B0000B364F6A4C6B8D8A33433C430E69234385
:1021C0000C6A43EA854389693343234300680B4320
:1021D0001343436183E7FFE7CC6984B1D1E90B384E
:1021E0004F6A4E6BB1F814C043EA08033E433343D1
:1021F000CE6843EA8C43334323430468D2E74C6AF6
:10220000002C9DD0D1E90B368F8A4D6B016833438A
:1022100025432B4343EA8740104348615FE70000B2
:1022200030B595B00020012110240C900B020D93C5
:1022300005230E900A0610928D050190CDE90653F4
:102240000F9001AA129041F2883313901490CDE9B7
:102250000410CDE90214054807A9FEF7DDFA0028AD
:1022600001D06FF0020015B030BD00001400002452
:1022700030B595B000244FF480710E94C7201194AE
:102280004A01129413940B94CDE90C1409920F9403
:10229000069000F029F910B1A01E15B030BD11480C
:1022A00006A941F28832FEF70DFB10B16FF0030072
:1022B000F3E7012000940523049410210190820586
:1022C000CDE90210CDE905230506074BCDE90F50F6
:1022D000044806A96A46FEF79FFA0028DDD06FF091
:1022E0000200DAE714000024A086010010B5FFF711
:1022F000A3FE00F067F80449884201D1002010BD18
:102300004FF0FF3010BD00001740EF0030B591B026
:1023100000204FF480744FF44061099465010B90E4
:10232000EB2406958A030F90062308930C921090D5
:10233000CDE902040E900A91019000F071F8054871
:1023400001AA03A9FEF758FB002801D06FF0050091
:1023500011B030BD14000024F0B58FB00546002345
:102360004FF0EB0C4FF480774FF4406006977C0100
:1023700003940C93860308930627079041F2883450
:102380000B9305970D93CDE90962CDE900C10C4887
:1023900022466946FEF796FA6FF0040628B9084807
:1023A00022462946FEF7D6FB10B130460FB0F0BDED
:1023B000FFF736FF0028F9D06FF00200F6E70000C3
:1023C0001400002410B590B04FF4807300205C011D
:1023D000069319040394032208909F230C90009302
:1023E00041F288340B900D9007900590CDE90912C9
:1023F0000A4822466946FEF765FA08480EA92246B1
:10240000FEF7A8FB9DF838209DF839009DF83A109A
:1024100010B0120442EA0020084310BD140000244A
:1024200070B58EB041F2883400204FF4807166227E
:102430000890CDE90610009222460B9069460C9058
:102440000D90099005900E48FEF73CFA4FF0FF35CD
:1024500060B9FFF7E5FE6FF0020670B999200090B1
:10246000074822466946FEF72DFA10B128460EB0FD
:1024700070BDFFF7D5FE0028F9D03046F7E7000021
:10248000140000242DE9F041CBB2C3F580749442CE
:1024900000D914460D468F1806464FF4807800BFC9
:1024A00000F022F818B16FF00100BDE8F081A2B28F
:1024B0002946304600F04EF810B16FF00400F4E702
:1024C000FFF7AEFE10B16FF00200EEE7254405F510
:1024D0008070B842264401D97C1B00E04446BD42CE
:1024E000DED30020E1E70000F0B595B041F2883579
:1024F00000242A464FF4807006210E94CDE90C0486
:102500000B9413481194129413940F94069106A9F6
:10251000FEF7D8F910B1A01E15B0F0BD0220009052
:1025200001214305102205260696CDE90221CDE9B9
:102530000443C7050190CDE90F71054806A92B4654
:102540006A46FEF769F90028E6D06FF00200E3E77B
:102550001400002470B58EB004464FF48070002340
:10256000450103958600069008934FF040700C9348
:1025700032250B930D9307960593CDE90902CDE91A
:102580000051FFF7B1FF18B16FF001000EB070BD40
:1025900041F288360B4832466946FEF793F96FF0F0
:1025A000040528B9074832462146FEF733FB08B137
:1025B0002846EBE7FFF734FE0028E7D06FF0020073
:1025C000E4E70000140000242DE9F0419846164687
:1025D0000F460446069D08E0681C06D0FEF756F834
:1025E000A0EB0800A8420AD84DB1206880683840A6
:1025F00000D00120B042EFD10020BDE8F0810420DE
:1026000084F84100606C40F0010060640120F4E750
:102610002DE9F047454D044689464FF0000A2868E9
:10262000C04380070AD0414E283E306820F08060C9
:102630003060FEF72BF80746B04608E00120BDE801
:10264000F08700BFFEF722F8C01B022867D8D8F831
:1026500000000001F6D4206829684FF4FE0721F439
:102660007C313E0241EA00302860207AA389B4F828
:1026700004C040022D4D2D495B1E227CACF1010CA3
:102680001035091DA0F5007080B2521ECCF3080C65
:1026900007EA034340EA0C00184306EA02621043CB
:1026A00028600868626920F0C000104308600A686A
:1026B000A06922F0200202430A60281D0A6822F065
:1026C00010020A6002684FF6F873E4699A4342EA1E
:1026D000C40202600868B9F1000F40F010020A60FD
:1026E00011D00868B9F1010F11D040F40010086052
:1026F000D8F80000444640F08060C8F80000FDF7BC
:10270000C5FF05460DE0086840F40020EFE740F4FF
:102710008010ECE7FDF7BAFF401B022801D9032027
:102720008DE720680001F5D5504688E72844025817
:102730002DE9F047454D044689464FF0000A2868C8
:10274000C04380070AD0414E283E306820F08050B8
:102750003060FDF79BFF0746B04608E00120BDE86A
:10276000F08700BFFDF792FFC01B022867D8D8F89A
:1027700000008000F6D4208829684FF4FE0721F07D
:102780007C713E0241EA00502860207AA389B4F8A7
:1027900004C040022D4D2D495B1E227CACF1010C82
:1027A0001835091DA0F5007080B2521ECCF3080C3C
:1027B00007EA034340EA0C00184306EA02621043AA
:1027C00028600868626920F44060104308600A6865
:1027D000A06922F4007202430A60281D0A6822F4EC
:1027E00080720A6002684FF6F873E4699A4342EA1D
:1027F000C40202600868B9F1000F40F480720A60F8
:1028000011D00868B9F1010F11D040F08070086054
:10281000D8F80000444640F08050C8F80000FDF7AA
:1028200035FF05460DE0086840F48000EFE740F40E
:102830000000ECE7FDF72AFF401B022801D9032026
:102840008DE720688000F5D5504688E72844025877
:102850007047FDF721BF000070B59CB04C21684661
:10286000FDF78AFD202113A8FDF786FD0220FDF764
:10287000A9FF2D4900242D480A6822F001020A60B0
:102880000A68026842F440420260026802F4404270
:102890001B9202689204FCD5254A136843F0020398
:1028A0001360126802F002021B92026842F4404276
:1028B000026002680A6842F001020A60096801F0D9
:1028C00001011B9101688904FCD50DF1280C082534
:1028D000022009900523C0268CE84900CDE90D05AA
:1028E000C2030F9001216846CDE91054CDE90012D2
:1028F0001294FFF78BF808B172B6FEE740201A90E9
:102900003F210301CDE916500322CDE9180313AB93
:1029100013A883E816000421FEF7AEFE002801D0BC
:1029200072B6FEE71CB070BD2C040058184802585F
:10293000F44402582C48F0B52C4A016841F4700167
:102940000160106800F00F00072804D2106820F022
:102950000F00C01D106026490020254C10340B6864
:10296000244D43F001030B6020600B682B400B608B
:10297000136803F00F03072B04D9136823F00F0328
:10298000DB1D13601A4C1C4A18341C4B261D371DC6
:102990002060174C1A4D28343060261D3860371DD2
:1029A00023603B1D35601C1D3A60251D2E1D1860DF
:1029B000331D22602860326018600A680C4B114C8D
:1029C00022F4802260330A60186020686FF30F00E1
:1029D000B0F1005F03D20C490120C1F8080143F2B5
:1029E000D2000A490860F0BD88ED00E000200052E6
:1029F000004402587FEDF6EA800201010002020263
:102A00000000FF010010005C0080005100400052F7
:102A1000FEE7090700284FEA116104DB00F1E0201E
:102A200080F80014704700F00F0000F1E02080F8FB
:102A3000141D70477CB5AA204FF0FF3600244FF4D8
:102A400000058DF80000012221466846FFF71AFDB7
:102A500008BB04F58054AC42F5D300240122214682
:102A600001A8FFF779FCB0B99DF804009DF80010AB
:102A7000884210D104F58054AC42EFD3FFF746FCF6
:102A800048B900219DF80020A1F1E04000788DF8C0
:102A90000400904201D030467CBD01F58051A9422E
:102AA000F0D300207CBD0000234B0020196889036F
:102AB00011D4BFF34F8FBFF36F8F20490860BFF36E
:102AC0004F8FBFF36F8F196841F400311960BFF366
:102AD0004F8FBFF36F8F1968C90322D41649703125
:102AE0000860BFF34F8F081F43F6FF740068134D53
:102AF0001035C0F34E31C0F3C90204EA4116104646
:102B000046EA80772F60401EFAD2491EF5D2BFF305
:102B10004F8F186840F480301860BFF34F8FBFF3B9
:102B20006F8FFDF7C1FDFFF797FEFFF745FAFFF73F
:102B300083FA00F005F8FEE714ED00E050EF00E046
:102B400008B500200090FFF7D1FB08B101200AE092
:102B5000FFF78EFB08B1022005E0FFF76BFF08B11D
:102B6000042000E00320009008BD4FF04070E1EE2B
:102B7000100A704700000000010203040102030470
:102B800006070809A42B0008000000241400000018
:102B9000D4020008B82B000814000024AC10000078
:102BA000F00200080100000010000000000000001A
:082BB0000090D0030090D00357
:040000050800029954
:00000001FF
