:020000040800F2
:1000000000090020B1020008632A0008F128000856
:10001000612A0008BD03000819380008000000002C
:100020000000000000000000000000001530000883
:100030008904000800000000652A00081730000845
:10004000CB020008CB020008CB020008CB0200085C
:10005000CB020008CB020008CB020008CB0200084C
:10006000CB020008CB020008CB020008CB0200083C
:10007000CB020008CB020008CB020008CB0200082C
:10008000CB020008CB020008CB020008CB0200081C
:10009000CB020008CB020008CB020008CB0200080C
:1000A000CB020008CB020008CB020008CB020008FC
:1000B000CB020008CB020008CB020008CB020008EC
:1000C000CB020008CB020008CB020008CB020008DC
:1000D000CB020008CB020008CB020008CB020008CC
:1000E000CB020008CB02000800000000CB02000891
:1000F000CB020008CB020008CB020008CB020008AC
:10010000CB020008CB020008CB020008CB0200089B
:10011000CB020008CB020008CB020008CB0200088B
:10012000CB020008CB020008CB020008CB0200087B
:10013000CB020008CB020008CB020008CB0200086B
:1001400000000000000000000000000000000000AF
:10015000CB020008CB020008CB020008CB0200084B
:10016000CB020008CB020008CB020008CB0200083B
:10017000CB020008CB020008CB020008CB0200082B
:10018000CB020008CB020008CB020008CB0200081B
:10019000CB020008CB020008CB020008CB0200080B
:1001A000CB020008CB020008CB020008CB020008FB
:1001B000CB020008CB020008CB020008CB020008EB
:1001C000CB020008CB020008CB020008CB020008DB
:1001D000CB020008CB020008CB020008CB020008CB
:1001E000CB020008CB020008CB020008CB020008BB
:1001F000CB020008CB020008CB020008CB020008AB
:10020000CB020008CB020008CB020008CB0200089A
:10021000CB020008CB020008CB020008CB0200088A
:10022000CB020008CB020008CB020008000000004F
:10023000CB020008CB02000800000000CB0200083F
:10024000CB020008CB020008CB020008CB0200085A
:10025000CB020008CB020008CB020008CB0200084A
:10026000CB020008CB020008CB020008CB0200083A
:10027000CB020008CB020008CB02000800000000FF
:10028000CB020008CB020008CB02000800000000EF
:1002900000000000CB020008DFF810D000F07CF86E
:1002A00000480047C9390008AFF30080000900206A
:1002B0000648804706480047FEE7FEE7FEE7FEE700
:1002C000FEE7FEE7FEE7FEE7FEE7FEE7F93000089F
:1002D000990200082DE9F05F0546002092469B46F2
:1002E00088460646814640241BE02846414647464C
:1002F000224600F041F853465A46C01A914110D3A5
:1003000011461846224600F028F82D1A67EB01081E
:100310004F4622460120002100F01FF817EB00098C
:100320004E41201EA4F10104DFDC484631462A4636
:100330004346BDE8F09FD2B201E000F8012B491E10
:10034000FBD270470022F6E710B513460A46044672
:100350001946FFF7F0FF204610BD202A04DB203AA3
:1003600000FA02F1002070479140C2F1200320FA08
:1003700003F3194390407047202A04DB203A21FA06
:1003800002F00021704721FA02F3D040C2F12002AE
:100390009140084319467047064C074D06E0E06857
:1003A00040F0010394E8070098471034AC42F6D3BC
:1003B000FFF776FF1040000830400008FEE700001D
:1003C0002DE9F041BFF34F8FBFF36F8F2948002114
:1003D0000368294A23F4003303601160BFF34F8F91
:1003E000BFF36F8F234A70321160BFF34F8F0268E3
:1003F00022F480320260BFF34F8F1E4843F6FF7431
:100400006C3000681C4D2435C0F34E32C0F3C90374
:1004100004EA4216184600BF46EA80772F60401E65
:10042000FAD2521EF4D2BFF34F8FBFF36F8F4FF04B
:10043000E02001614161816142170020810001F1EA
:10044000E021401C0828C1F88021C1F88022F5DB9A
:100450004FF400440948214600F02CF80848214692
:1004600000F028F8074802F077F9BDE8F04101F004
:1004700023BC000014ED00E050EF00E0000802583B
:100480000020025868000020704772B6FEE70000A6
:1004900070B5044600F0F0F90546601C02D004482F
:1004A0000078044400F0E8F9401BA042FAD370BD84
:1004B000000000202DE9F04F4F4D00224FF0010ABF
:1004C0004FF00F0B92E000BF0AFA02F919EA01039C
:1004D0007ED022F0030606F1B0469407D6F808C491
:1004E000270FDFF818810BFA07FE40450EEA0C04CF
:1004F00002D14FF0000C40E0DFF804C1604502D1AA
:100500004FF0010C39E0DFF8FCC0604502D14FF03C
:10051000020C32E0DFF8F0C0604502D14FF0030C6E
:100520002BE0DFF8E8C0604502D14FF0040C24E076
:10053000DFF8DCC0604502D14FF0050C1DE0DFF8AC
:10054000D4C0604502D14FF0060C16E0DFF8C8C0F9
:10055000604502D14FF0070C0FE0DFF8C0C06045E6
:1005600002D14FF0080C08E0DFF8B4C0604502D1BA
:100570004FF0090C01E04FF00A0C0CFA07FCA445FF
:1005800013D12C689C432C606F684FF0B0449F439C
:100590006F6067689F43676027689F432760D6F84E
:1005A000084424EA0E04C6F8084407680323D40864
:1005B0004FEA42084FEA427C03FA08F34FEADC6C48
:1005C0001F4307600BFA0CF600EB8404276A00E077
:1005D0000BE0B7432762C4689C43C460446824EAC4
:1005E0000904446084689C438460521C31FA02F31D
:1005F0007FF46AAFBDE8F08F800000580000025819
:100600000004025800080258000C0258001002585A
:100610000014025800180258001C0258002002580A
:10062000002402582DE9F84F03247D4D00234FF09C
:1006300001094FF0B04B4FF00F0AE9E009FA03F758
:100640003A4076D00E7906F00306012E01D0022E34
:1006500018D1D0F808C04FEA430ECE6804FA0EF85D
:100660002CEA080C06FA0EF646EA0C068660D0F86C
:1006700004C00E792CEA070CC6F300169E4046EA29
:100680000C0646600E79F643B6070BD0C6684FEAF3
:1006900043088F6804FA08FC26EA0C0607FA08F7F4
:1006A0003743C7600E7906F00306022E12D1DE082A
:1006B0000F694FEA437C00EB8606B646366A4FEA7E
:1006C000DC6C0AFA0CF807FA0CF726EA080637433E
:1006D000CEF820700F7906684FEA430807F0030749
:1006E00004FA08FC07FA08F726EA0C063743076005
:1006F0004E6816F4403F1CD04A4E376847F0020758
:10070000376036689F0706F00206009623F003065E
:1007100006F1B046B6463F0FD6F80864DFF8088108
:100720000AFA07FC404526EA0C0603D14FF0000CFC
:1007300041E06CE0DFF8F4C0604502D14FF0010CFD
:1007400039E0DFF8ECC0604502D14FF0020C32E036
:10075000DFF8E0C0604502D14FF0030C2BE0DFF87A
:10076000D8C0604502D14FF0040C24E0DFF8CCC0C3
:10077000604502D14FF0050C1DE0DFF8C4C06045B4
:1007800002D14FF0060C16E0DFF8B8C0604502D188
:100790004FF0070C0FE0DFF8B0C0604502D14FF01A
:1007A000080C08E0DFF8A4C0604502D14FF0090C46
:1007B00001E04FF00A0C0CFA07FC4CEA060CCEF8EC
:1007C00008C44F68DBF80060FF0226EA020600D585
:1007D00016435F46CBF80060D1F804C0DBF8046034
:1007E0005FEA8C2C26EA020600D516437E606E680E
:1007F0004F6826EA0206BF0300D516436E602E68D6
:100800004F6826EA0206FF0300D516432E605B1CE4
:100810000A6832FA03F67FF411AFBDE8F88F0000E2
:1008200080000058F44402580000025800040258A6
:1008300000080258000C0258001002580014025818
:1008400000180258001C02580020025800240258C8
:10085000426921EA02030A4043EA0241816170478A
:100860000AB1816170470904FBE700000148006894
:10087000000C70470010005C014880687047000061
:1008800000000020024881680278114481607047AE
:1008900000000020032010B500F078F801F04AFBBA
:1008A0000F4A104914681368C4F3032203F00F03BE
:1008B0008A5CC95C02F01F0201F01F01D0400A4AA5
:1008C00020FA01F11160094908600F2000F010F8CA
:1008D00008B1012010BD00F02BF8002010BD000071
:1008E00018440258303B0008100000200C00002083
:1008F00070B50D4D04462878A0B14FF47A71B1FB64
:10090000F0F00A490968B1FBF0F001F070FE48B957
:10091000102C07D200222146501E00F017F80020AC
:100920006C6070BD012070BD000000200C00002034
:10093000054808B5016841F002010160006800F057
:100940000200009008BD0000F44402580E4BF0B4C1
:100950001B680D46C3F30223C3F10706042E00D91A
:100960000426191D072901D2002300E0DB1E012403
:1009700004FA06F19C40491E2940641E9940144027
:100980002143F0BC02F052BF0CED00E0064900F03C
:10099000070210B54FF6FF040868044B204040EAF8
:1009A00002201843086010BD0CED00E00000FA05BD
:1009B000134970B50A68D243520705D5096801F09A
:1009C0000701814213D118E00A6822F007020243AE
:1009D0000A60FFF751FF0A4D4FF47A760446083D4E
:1009E00007E000BFFFF748FF001BB04201D901201C
:1009F00070BD2868C0438004F4D4002070BD00009E
:100A00000C4802582DE9F84F1E4615468A46044602
:100A1000FFF732FF814694F8400001280ED00127ED
:100A20004FF0000884F8407094F84100012807D086
:100A30005FF0020084F84080BDE8F88F0220FBE7F9
:100A40004221C4F8448084F84110002220214B4602
:100A50002046009602F09AF90028EBD12168286818
:100A600088622168686848622168A868C86220684E
:100A70002969026822F4400242F4800211430160B5
:100A8000E9684FF000622046CAF82810514601F08C
:100A9000EAFF01224B4608212046009602F076F933
:100AA0000028C7D122680821D16084F84170C1E7CD
:100AB0002DE9F84F17468B460446FFF7DDFE8246C8
:100AC00094F8400001280ED001264FF0000884F869
:100AD000406094F84100012807D0022584F8408046
:100AE0002846BDE8F88F0220FBE74FF00209C4F862
:100AF000448084F8419000222021534620460097EC
:100B000002F044F90500E9D100225946204601F0DF
:100B1000AAFFDBF8240058B90122534602212046DF
:100B2000009702F033F90500D8D12168C1F80C9084
:100B300084F84160D2E70000F8B50446FFF79CFE58
:100B400005461CB194F8410010B107E00120F8BD42
:100B5000204600F08DF841F28830A06420686FF0E4
:100B6000FF02A168036802EB012223F4F85111434C
:100B70000160A06C002220212B460090204602F04C
:100B800005F90028E3D12268D4E907352679E16820
:100B9000176845EA0665DFF844C01943104B29433E
:100BA0000025012607EA0C07394311602268D4E9C1
:100BB0000517B4F810C0D2F804E039430EEA030E6A
:100BC0004EEA0C431943516021680A6842F0010261
:100BD0000A60656484F84160F8BD00002FFFFF00E3
:100BE000FEF8E0FF2DE9F843164688460446FFF775
:100BF00043FE034694F8400001280ED0012084F8FB
:100C00004000002794F84100012808D05FF0020559
:100C100084F840702846BDE8F8830220FBE7A06C0A
:100C20008221676484F84110002220210090204630
:100C300002F0ACF80500EBD120687268016821F081
:100C4000080111430160706808280AD12268102148
:100C5000306810632068C1602068016841F4801129
:100C600001604FF040624146204601F0FCFECFE7B4
:100C70002DE9F041B6B00446142130A8FFF762FB1D
:100C8000C0216846FFF75EFB2A49206888424DD1A3
:100C9000002013904FF000710446CDE90010684623
:100CA00000F006FA08B1FFF7F0FB2348016841F4B1
:100CB00080410160006800F4804035901E480C308F
:100CC000016841F040010160016801F04001359187
:100CD000016841F020010160006832AA022500F09D
:100CE0002000359003260A27012182E8C200402017
:100CF000CDE93005114830A9FFF794FC0921329461
:100D0000DFF83C804FF49860CDE93361CDE93005E0
:100D100030A94046FFF786FC300232AACDE9300503
:100D200030A9404682E8D000FFF77CFC36B0BDE831
:100D3000F081000000500052D444025800180258BC
:100D4000001402582DE9F84F15460E460446FFF7E9
:100D500093FD82462068816994F8403000F12009B3
:100D6000012B0DD001274FF0000884F8407094F853
:100D70004120012A06D0022084F84080BDE8F88F87
:100D80000220FBE7C4F84480A6B3222284F8412065
:100D90000269521CA2630269521C626326634269A3
:100DA00022F0406242F080624261206881610EE080
:100DB0000621204601F0EAFFC8B999F80000216B2E
:100DC0000870206B401C2063A06B401EA063A06BCA
:100DD00053464FF0010200950028E9D14FF002017F
:100DE000204601F0D3FF10B922680221D16084F8B7
:100DF0004170C1E7FFE7616C012041F008016164C7
:100E0000BAE7000010B501F04FF805490968054A36
:100E1000C1F30211515C01F01F01C84010BD000078
:100E200020440258303B0008494930B5484C0B1D5E
:100E30000A68143409681D68246802F00303C5F3C6
:100E40000012C1F30531C4F3CC04002914FB02F2F3
:100E500000EE102AF8EE400A75D03F4A9FED3D1A89
:100E6000B7EE000A6BB1DFED3D1A012B01D0022B6A
:100E700064D002EE101A1168F8EE422A81EEA22A1E
:100E800021E0334C283C23689B0612D5344B246860
:100E900001EE901A1168C4F3C104F8EE612AE34030
:100EA00001EE903AC1F30801F8EE611A81EEA22A30
:100EB0000BE001EE901ADFED2B2A00BFF8EE611A6D
:100EC000116882EEA12AC1F3080101EE901A11689F
:100ED000F8EE611A40EE811A71EE800A62EE200A85
:100EE000C1F3462101EE101AB8EE411A31EE001A94
:100EF000C0EE811ABCEEE11A80ED001A1168C1F350
:100F0000064101EE101AB8EE411A31EE001AC0EE99
:100F1000811ABCEEE11A80ED011A1168C1F3066175
:100F200001EE101AB8EE411A31EE000A80EE801A76
:100F3000BCEEC10A80ED020A30BD04E001EE901A59
:100F4000DFED092ABAE70021016041608160F3E723
:100F50002844025800000039384402580024744ADA
:100F60000090D0030024744C20BCBE4B494930B5DE
:100F7000484C0B1D0A681C3409681D68246802F07F
:100F80000303C5F30022C1F30551C4F3CC040029C7
:100F900014FB02F200EE102AF8EE400A75D03F4A28
:100FA0009FED3D1AB7EE000A6BB1DFED3D1A012B44
:100FB00001D0022B64D002EE101A1168F8EE422A1A
:100FC00081EEA22A21E0334C283C23689B0612D5EF
:100FD000344B246801EE901A1168C4F3C104F8EE92
:100FE000612AE34001EE903AC1F30801F8EE611A7C
:100FF00081EEA22A0BE001EE901ADFED2B2A00BF52
:10100000F8EE611A116882EEA12AC1F3080101EE1F
:10101000901A1168F8EE611A40EE811A71EE800A9A
:1010200062EE200AC1F3462101EE101AB8EE411A11
:1010300031EE001AC0EE811ABCEEE11A80ED001A02
:101040001168C1F3064101EE101AB8EE411A31EEF3
:10105000001AC0EE811ABCEEE11A80ED011A116887
:10106000C1F3066101EE101AB8EE411A31EE000A22
:1010700080EE801ABCEEC10A80ED020A30BD04E0A9
:1010800001EE901ADFED092ABAE700210160416004
:101090008160F3E7284402580000003940440258B8
:1010A0000024744A0090D0030024744C20BCBE4B32
:1010B0002DE9FE4F0546DFF8E48350F8081B0024B5
:1010C000F64FC943019005F12800264608F124088F
:1010D000009008011DD4A86E50B1B0F5801F0CD04F
:1010E000B0F5001F0ED0B0F5401F1ED001240FE058
:1010F000386840F40030386017E00198022101F0B0
:1011000069FE03E00098022101F0F4FE04000CD017
:1011100026462888C043C00523D4A86D05281ED2C2
:10112000DFE800F00C11161B1B00AA6ED8F80010A7
:1011300021F440111143C8F80010EAE7386840F480
:101140000030386009E00198002101F043FE03E01F
:101150000098002101F0CEFE044674B100E00124A5
:1011600026462888C043800528D4E86D80281ED0F4
:101170000CDC90B140280ED114E0AA6DD8F8001014
:1011800021F007011143C8F80010EAE7C02813D086
:10119000B0F5807F10D001240FE0386840F40030B3
:1011A000386009E00198002101F014FE03E0009886
:1011B000002101F09FFE04469CB126462888DFF8F6
:1011C000DC92C04309F12C0940052CD4D5F8A800C5
:1011D000B0F5800F20D00DDCA0B1B0F5001F0FD10D
:1011E00015E0EA6DD8F8001021F4E0711143C8F859
:1011F0000010E3E7B0F5C00F13D0B0F5000F10D02A
:1012000001240FE0386840F40030386009E00198AC
:10121000002101F0DFFD03E00098002101F06AFEEB
:1012200004467CB126462888C04300052DD4D5F855
:10123000AC00B0F1007F21D00EDCA8B1B0F1807F0E
:1012400010D116E0D5F8A820D9F8001021F46001DB
:101250001143C9F80010E6E7B0F1407F13D0B0F1B8
:10126000806F10D001240FE0386840F400303860FF
:1012700009E00198002101F0ADFD03E00098002194
:1012800001F038FE044674B126462868C043800148
:101290001FD4E86CD8B110280FD0202812D03028E5
:1012A00015D0012414E0D5F8AC20D9F8001021F0B5
:1012B000E0611143C9F80010E7E7386840F40030F6
:1012C000386004E00198022101F084FD044674B105
:1012D00026462888C043C0042BD4286EB0F5005F92
:1012E00020D00DDCA0B1B0F5805F0FD115E06B48C8
:1012F000EA6C2030016821F0300111430160E8E719
:10130000B0F5405F13D0B0F5804F10D001240FE04E
:10131000386840F40030386009E00198002101F09D
:1013200059FD03E00098002101F0E4FD04468CB172
:1013300026462888C043800429D4686EB0F5403F13
:1013400023D010DC08B3B0F5803F14D0B0F5003FD7
:101350000FD115E02A6ED8F8001021F4E0411143B6
:10136000C8F80010E5E7B0F5802F0ED0B0F5A02F3B
:101370000BD001240AE00198012101F02BFD03E0CC
:101380000098012101F0B6FD044694B12646288854
:10139000C04340042AD4D5F8B000B0F1405F23D058
:1013A00010DC08B3B0F1805F14D0B0F1005F0FD152
:1013B00015E06A6ED8F8001021F4E0211143C8F856
:1013C0000010E4E7B0F1804F0ED0B0F1A04F0BD089
:1013D00001240AE00198012101F0FCFC03E00098DF
:1013E000012101F087FD044674B126462888C043D8
:1013F00000041FD4286FD8B1B0F1805F0ED0B0F1D7
:10140000005F10D0012414E0D5F8B020D9F8001006
:1014100021F0E0411143C9F80010E7E7386840F4D3
:101420000030386004E00198012101F0D3FC04464B
:1014300074B126462868C043C0011ED4A86CD0B140
:1014400001280ED0022811D0032814D0012413E063
:101450002A6FD8F8001021F040511143C8F800104D
:10146000E8E7386840F40030386004E00198022171
:1014700001F0B0FC0446ACB126462868DFF81CB089
:10148000C043ABF11C0B400252D40548016841F443
:1014900080710160FFF7F0F9824611E02C44025898
:1014A00000480258FA48AA6C016821F00301114370
:1014B0000160E2E7FFF7E0F9A0EB0A00642835D805
:1014C000F4480068C005F5D58CBBDFF8C4A3B5F8B7
:1014D000B4100AF1240ADAF8000001F4407100F4B3
:1014E0004070884211D0DAF80010DAF8002021F4B8
:1014F000407142F48032CAF80020DAF8002022F469
:101500008032CAF80020CAF80010D5F8B400B0F54F
:10151000807F1AD1FFF7B0F9029012E0FFF7ACF923
:101520000299411A41F2883081420AD903242646A1
:101530002878DFF85CA3C0430AF1080AC00721D06D
:101540003CE0DAF800008007E8D5D5F8B410C1F324
:101550000120032858460DD0016821F47C51016018
:10156000B5F8B420DAF80010C2F30B021143CAF840
:101570000010DDE7C84A036802EA111223F47C5127
:101580001143ECE7E86F182816D005DCA0B1082855
:1015900008D0102804D10AE020280DD028280BD02C
:1015A00001240AE00198012101F014FC03E00098F5
:1015B000012101F09FFC044664B126462878C0430F
:1015C00080071ED4A86F062819D2DFE800F0160C99
:1015D00011161616EA6FDAF8001021F038011143DF
:1015E000CAF80010EAE70198012101F0F3FB03E0DB
:1015F0000098012101F07EFC04467CB100E001244A
:1016000026462878C04340071FD4D5F89400062802
:1016100019D2DFE800F0160C11161616AA6FDAF8C8
:10162000001021F007011143CAF80010E9E7019802
:10163000012101F0CFFB03E00098012101F05AFCE9
:101640000446A4B100E0012426462878C043800661
:101650002BD4D5F89000B0F1405F24D011DC10B34A
:10166000B0F1805F15D0B0F1005F10D116E0D5F871
:101670009420D9F8001021F007011143C9F8001097
:10168000E3E7B0F1804F0ED0B0F1A04F0BD00124B2
:101690000AE00198002101F09DFB03E0009802217F
:1016A00001F028FC044694B126462878C043400641
:1016B0002BD4D5F89C00B0F5406F24D011DC10B3CA
:1016C000B0F5806F15D0B0F5006F10D116E0D5F8E9
:1016D0009020DAF8001021F0E0411143CAF8001020
:1016E000E3E7B0F5805F0ED0B0F5A05F0BD001242A
:1016F0000AE00198002101F06DFB03E0009802214F
:1017000001F0F8FB044694B126462878C043000651
:101710002BD4D5F8A000B0F5C04F24D011DC10B305
:10172000B0F5005F15D0B0F5804F10D116E0D5F8B8
:101730009C20D9F8001021F4E0511143C9F80010A1
:10174000E3E7B0F5004F0ED0B0F5204F0BD00124E9
:101750000AE00198002101F03DFB03E0009802211E
:1017600001F0C8FB044654B126462878C043000760
:101770001ED4D5F88400B0F5805F0AD00FE0D5F80C
:10178000A020D9F8001021F460411143C9F80010DD
:10179000EBE70098022101F0ADFB00B10126D5F87E
:1017A0008420DAF8001021F440511143CAF80010E7
:1017B0002878C043C00613D4D5F89800B0F5807FD0
:1017C00005D10098022101F095FB00B10126D5F862
:1017D0009820D9F8001021F440711143C9F8001085
:1017E0002868C043000316D4D5F8A40038B1B0F57A
:1017F000803F09D0B0F5003F0BD001240AE00198EA
:10180000002101F0E7FA03E00098022101F072FBE9
:1018100004468CB126462868C043400322D4D5F83C
:101820008800B0F5801F11D0B0F5001F13D0B0F5BF
:10183000401F15D0012414E0D5F8A420D9F80010D9
:1018400021F440311143C9F80010E4E7386840F44E
:101850000030386004E00098012101F04BFB0446A1
:101860005CB126462868C043C00323D4286DA8B1C4
:10187000B0F5803F17D001241BE0D5F88820DAF8B6
:10188000001021F440111143CAF80010EAE70000EB
:101890004C44025800480258CFFFFF00386840F41B
:1018A0000030386004E00198022101F093FA044608
:1018B000E4B126462868C043800005D40098022180
:1018C00001F018FB00B101262868C04380031BD437
:1018D000D5F88000B0B1B0F5807F0FD0B0F5007FB3
:1018E00010D0B0F5407F0DD001240CE05A482A6D8D
:1018F000016821F4803111430160DBE7386840F46E
:1019000000303860ECB326462868C043C00207D4D4
:101910006A6FD8F8001021F000411143C8F8001098
:101920002868C043C00008D4D5F8B820DBF8001000
:1019300021F480411143CBF800102868C043800295
:1019400007D4EA6ED8F8001021F080711143C8F86E
:1019500000102868C04340000CD4DBF8001021F4CC
:101960000041CBF80010DBF80010D5F8BC20114383
:10197000CBF800102868C04308D437486A6D016866
:1019800000E018E021F04051114301602868C04395
:10199000000208D4D5F88C20DAF8001021F44001B8
:1019A0001143CAF8001028790024C04300F0010058
:1019B00020430AD00FE0D5F88020DAF8001021F497
:1019C00040711143CAF800109EE70198002101F010
:1019D00001FA00B106462879C04300F00200204316
:1019E00005D10198012101F0F5F900B106462879E9
:1019F000C04300F00400204305D10198022101F00A
:101A0000E9F900B106462879C04300F008002043F8
:101A100005D10098002101F06DFA00B10646287941
:101A2000C04300F01000204305D10098012101F0CF
:101A300061FA00B106462879C04300F02000044353
:101A400004D10098022101F055FA00B916B1012025
:101A5000BDE8FE8F0020FBE74C4402582DE9F05F03
:101A600004000F467ED0DFF83882D8F8000000F07E
:101A70000F00B8420CD2D8F8001021F00F01394302
:101A8000C8F80010D8F8000000F00F00B84269D183
:101A90002078844D40070AD52069296801F070013B
:101AA000884204D9296821F0700101432960207817
:101AB0007C4E361D00070AD56069316801F070015F
:101AC000884204D9316821F07001014331602078E7
:101AD000C0060AD5A069316801F4E061884204D9E2
:101AE000316821F4E061014331602078DFF8B4B15E
:101AF00080060BF1080B0CD5E1695846DBF8002095
:101B000002F07002914204D9026822F070020A4386
:101B10000260207880070AD5E068296801F00F018B
:101B2000884204D9296821F00F01014329602078F7
:101B3000C0073ED05B49A2682868183920F470605D
:101B4000104328606068022818D0032819D009685B
:101B5000012819D0490700294ADADFF848A1AAF17B
:101B6000080A00E044E0DAF8002022F0070202430D
:101B7000CAF80020FEF780FE814612E0096889035A
:101B8000E9E709688901E6E7C905E4E7FEF774FEBD
:101B9000A0EB090141F28830814202D90320BDE85F
:101BA000F09F6168DAF8000000F03800B0EBC10F78
:101BB000ECD1207880070AD5E068296801F00F0190
:101BC000884204D2296821F00F0101432960D8F826
:101BD0000010404601F00F01B9420BD9016821F015
:101BE0000F0139430160006800F00F00B84201D0D6
:101BF0000120D4E7207840070AD52069296801F040
:101C00007001884204D2296821F0700101432960E3
:101C1000207800070AD56069316801F070018842B8
:101C200004D2316821F07001014331602078C00690
:101C30000AD5A069316801F4E061884204D23168B4
:101C400021F4E06101433160207880060CD5E16920
:101C50005846DBF8002002F07002914204D202687C
:101C600022F070020A43026000F064F90E492A680B
:101C70002B68C2F3032203F00F038A5CC95C02F0F5
:101C80001F0201F01F01D040084A20FA01F1116043
:101C90000749086007480068BDE8F05FFEF728BE06
:101CA0000020005218440258303B00081000002069
:101CB0000C000020040000202DE9F047704C206843
:101CC00000F00F00072809D2206820F00F00C01D87
:101CD0002060206800F00F0007287CD1FEF7CCFDC3
:101CE000DFF8A0810546D8F8000040F00100C8F8F0
:101CF000000004E0FEF7C0FD401B022875D8D8F8AC
:101D000000004007F6D55F4800275E4E001D1036E4
:101D100003685D4943F08043036037605B480160BE
:101D20005B4801605B480068FEF7E2FD002852D185
:101D3000FEF7A2FD054641F2883904E0FEF79CFD5E
:101D4000411B494551D8306810F0380FF6D1FEF7E5
:101D500093FD51490546D8F800000840C8F8000036
:101D600005E000BFFEF788FD401B64283DD8D8F889
:101D700000008003F6D4FEF77FFD0546D8F800008A
:101D800020F08070C8F8000005E000BFFEF774FD89
:101D9000401B022829D8D8F800008001F6D4FEF7AD
:101DA0006BFD0546D8F8000020F08060C8F8000000
:101DB00005E000BFFEF760FD401B022815D8D8F8EB
:101DC00000000001F6D4FEF757FD0546D8F80000E4
:101DD00020F0805001E04EE007E0C8F8000007E086
:101DE000FEF74AFD401B022802D90320BDE8F08718
:101DF000D8F800008000F3D4224D38462749183522
:101E0000274B2E1D321D2F601E4F264D2837306068
:101E10003E1D1060321D3B60131D35601D1D11609D
:101E20002A1D161D1860331D29601060316018606E
:101E3000D8F800304FF0FF351249124A23F48023BE
:101E4000104ED0316032C8F800306836106035600E
:101E5000086840F480300860206800F00F00072810
:101E60000BD9206820F00F00C01D2060206800F012
:101E70000F00072801D00120B8E70020B6E70000D6
:101E800000200052004402580090D0030C000020B3
:101E9000100000200400002045EDF6FF8002010143
:101EA000000202020000FF0130B500F043F80B4AC7
:101EB0000B490C4B15681468C5F3032204F00F049A
:101EC0008A5C095D02F01F0201F01F01D040064A42
:101ED00020FA01F119601060084630BD184402581C
:101EE000303B0008100000200C00002000B5FFF778
:101EF000DBFF05490968054AC1F30211515C01F095
:101F00001F01C84000BD00001C440258303B0008BF
:101F100000B5FFF7C9FF05490968054AC1F3022169
:101F2000515C01F01F01C84000BD00001C44025874
:101F3000303B0008454970B545480968434B103BA4
:101F400011F0380208D00111082A03D0102A0BD052
:101F5000182A0BD0084670BD19688906FBD5196888
:101F6000C1F3C101C84070BD3A4870BD3749374D13
:101F700018310C1D24350A68096826682D6802F09E
:101F8000030406F00102C1F30511C5F3CC0515FBEE
:101F900002F200EE102AB8EE400AE9B32F4ADFED54
:101FA0002E0AB7EE001A6CB1DFED2D1A012C01D00C
:101FB000022C43D002EE101A1068F8EE422A81EE8D
:101FC000A22A1EE01C68A40611D51B6801EE901A17
:101FD0001168C3F3C103F8EE612AD84001EE900AFC
:101FE000C1F30800F8EE611A81EEA22A0BE001EEBF
:101FF000901ADFED1C2A00BFF8EE611A106882EE1D
:10200000A12AC0F3080001EE900AF8EE611A40EE32
:10201000201A31EE810A00E015E022EE000A106875
:10202000C0F34620401C00EE900AF8EE600A80EEF5
:10203000201ABCEEC10A10EE100A70BD01EE901A13
:10204000DFED092AD8E7002070BD000010440258D7
:102050000090D00340787D010000003930440258E0
:102060000024744A0024744C20BCBE4B2DE9F05F60
:1020700004007DD0FF4F2078FE4D1837DFF8F49331
:10208000103DC00748D0D9F80000396800F038008A
:10209000102815D0182803D101F0030002280FD012
:1020A0006068B0F5803F12D010B1B0F5A02F18D005
:1020B000286820F480302860286820F4802009E017
:1020C0002868800328D560680028D2D024E02868DA
:1020D00040F480302860606888B1FEF7CDFB06468A
:1020E00009E0286840F480202860F0E7FEF7C4FB90
:1020F000801B64286FD828688003F7D50CE0FEF7B2
:10210000BBFB064605E000BFFEF7B6FB801B64285C
:10211000F0D828688003F7D4207841F20308D54E20
:102120000C3E800769D5D9F80000396810F03800F6
:102130000ED0182801D188070AD0E06890B329682A
:1021400021F0190101432960FEF796FB824631E038
:102150002868400702D5E06800288AD0E16828682E
:1021600020F0190008432860FEF786FB824607E04E
:10217000DFE000BFFEF780FBA0EB0A000228B9D821
:1021800028684007F6D500BFFEF770FB40451BD816
:102190002069402812D0316821F47C3141EA0030B6
:1021A00030602AE018E000BFFEF766FBA0EB0A00F3
:1021B00002289FD828684007F6D5E5E7306820F464
:1021C0007C3040F40030EBE7207C316821F0FE41A8
:1021D00041EA0060E4E70DE1286820F00100286092
:1021E000FEF74AFB824605E0FEF746FBA0EB0A003D
:1021F00002288DD828684007F6D42078C0065DD51F
:10220000D9F80000DFF86CB2396800F03800ABF1A3
:10221000040B082810D0182803D101F0030001286E
:102220000AD0E0690028286838D040F08000286093
:10223000FEF722FB824623E02868C00523D5E0692B
:10224000802876D11FE0206A202821D0316821F033
:10225000F84141EA8060306030E000BF94F820101F
:10226000DBF8002022F07C5242EA0161CBF800103A
:1022700024E000BFFEF700FBA0EB0A00022898D87C
:102280002868C005F6D5FEF7F1FA4045E6D8DAE74A
:10229000306820F0F84040F08040DCE720F080001B
:1022A0002860FEF7E9FA064605E000BFFEF7E4FA0B
:1022B000801B02289DD82868C005F7D42078000725
:1022C00029D56C486169643000298046016811D0C5
:1022D00041F001010160FEF7CFFA064605E000BFBC
:1022E000FEF7CAFA801B0228C9D8D8F80000800778
:1022F000F6D510E021F001010160FEF7BDFA0646B7
:1023000005E000BFFEF7B8FA801B022872D8D8F8A3
:1023100000008007F6D42078800623D5A069002825
:10232000286810D040F480502860FEF7A5FA0646D1
:1023300005E036E1FEF7A0FA801B02285AD828688B
:102340008004F7D50EE020F480502860FEF794FA60
:10235000064604E0FEF790FA801B02284AD8286857
:102360008004F7D4207840074FD5DFF80C81D8F8E7
:10237000001041F48071C8F80010FEF77DFA06469F
:1023800005E000BFFEF778FA801B642832D8D8F841
:102390000000C005F6D5374EA068603601280AD087
:1023A00008B1052813D0306820F001003060306893
:1023B00020F0040002E0306840F001003060A068C6
:1023C00041F2883A90B1FEF757FA80460AE0306849
:1023D00040F004003060EEE7FEF74EFAA0EB080193
:1023E000514507D830688007F6D50EE0FEF744FA6D
:1023F000804607E084E000BFFEF73EFAA0EB08014C
:1024000051457DD830688007F6D4606AB0B3DFF8F4
:102410006480D9F8001008F120084FF6F87B08F125
:102420000409C1F3C2010329A8F1040A69D00228F2
:10243000286820F08070286003D0FEF71DFA04465B
:1024400084E0FEF719FA064605E000BFFEF714FA2D
:10245000801B022877D828688001F7D4E26A40F20E
:10246000F331386854F8283F884340EA0210184393
:10247000386004E01044025800480258B5E0217B5F
:10248000434622894FF4FE0C208A4FF0FE47490252
:10249000267D521E401EA1F50071C2F308088AB2C3
:1024A000761E0CEA004042EA08020243504607EA60
:1024B00006610A431A60DAF8002022F00102CAF825
:1024C0000020D9F80020266A22EA0B0242EAC6025E
:1024D000C9F80020DAF80010A26921F00C011143BC
:1024E000CAF800100168E26921F00201114301609D
:1024F000016841F480310160016841F4003101E07C
:1025000021E027E00160016841F480210160016859
:1025100041F001010160286840F080702860FEF7FA
:10252000ABF9044605E000BFFEF7A6F9001B022840
:1025300009D828688001F7D557E000BFFEF79CF95D
:10254000001B022802D90320BDE8F09F2868800103
:10255000F4D44AE039680128D8F8000021D0A26AF2
:1025600001F0030393421CD1E26AC1F305118A42D0
:1025700017D1216BC0F30802491E8A4211D1616B49
:10258000C0F34622491E91420BD1A16BC0F3064213
:10259000491E914205D1E16BC0F30660491E81429C
:1025A00001D00120D0E7A16C4E46D9F80000C0F35D
:1025B000CC00814219D0DAF80000554620F0010025
:1025C000CAF80000FEF758F94FEA0007FEF754F981
:1025D000B842FBD0A26C306820EA0B0040EAC2008F
:1025E0003060286840F0010028600020ACE7401E01
:1025F000B0F1807F10B501D3012010BD4FF0E02471
:1026000060610F21601701F011F90020A06107211E
:10261000216110BD30B590F88410012918D0012235
:1026200080F884202421C0F888100022202401682A
:102630000B680D6823F0005325F001050D6042661C
:1026400001680B60C0F8884080F88420104630BDD7
:10265000022030BD70B5044690F8840001281DD0DA
:10266000012284F884202420C4F8880020680568AA
:10267000026822F0010202602068826822F0606233
:102680000A438260204600F0A5FD22682021002038
:102690001560C4F8881084F8840070BD022070BDF5
:1026A00070B5044690F8840001281DD0012284F8FA
:1026B00084202420C4F8880020680568026822F07D
:1026C000010202602068826822F060420A43826050
:1026D000204600F07FFD2268202100201560C4F80C
:1026E000881084F8840070BD022070BD10B504000D
:1026F00003D0D4F8880010B107E0012010BD0020FD
:1027000084F88400204600F045F82420C4F88800AE
:102710002068016821F001010160204600F060FEA0
:102720000128EBD0A06A10B1204600F075FD2068AA
:10273000416821F4904141602068816821F02A01BC
:1027400081602068016841F0010101602046BDE818
:10275000104000F0C5BD000010B50068094988426E
:102760000FD10948016821F40021016007484FF4A6
:102770000071FDF79FFEBDE8104005480121FDF7FF
:1027800099BE10BD004C0040E84402580020025899
:102790000000025870B5B6B00446142130A8FDF709
:1027A000D1FDC0216846FDF7CDFD21492068884252
:1027B0003CD100201E9002210446CDE9001068465D
:1027C000FEF776FC08B1FDF760FE1A48016841F497
:1027D00000210160006800F4002035901548083899
:1027E000016841F480710160016801F480713591E4
:1027F000016841F00101016000680225082600F02F
:102800000100359028023090CDE931540A4830A9B2
:10281000CDE93346FDF706FF01203090CDE9315474
:10282000064830A9CDE93346FDF7FCFE36B070BD51
:10283000004C0040E84402580020025800000258B2
:102840002DE9F8430446D0F88800984616460D4610
:10285000202802D00220BDE8F883A5B19EB1002156
:10286000C4F890102120C4F888001834FEF704F84A
:10287000814654F8100CA687E6872027183CB0F54F
:10288000805F02D003E00120E5E7206910B12E4609
:10289000002510E000260EE08021204600F076FFA3
:1028A000C0B9DEB116F8010B21688862B4F8560091
:1028B000401EA4F85600B4F856004B464FF00002F4
:1028C000CDF800800028E7D14FF04001204600F00D
:1028D0005DFF48B1C4F888700320BCE735F8020BEF
:1028E0002168C0F30800E0E7C4F888700020B2E770
:1028F000FEE700002DE9F04387B014216846FDF79C
:1029000021FD2B48016841F004010160016801F0DC
:1029100004010591016841F480710160016801F4CE
:1029200080710591016841F040010160016801F08A
:1029300040010591016841F080010160016801F0EA
:1029400080010591016841F020010160016801F0FA
:1029500020010591016841F0010101600068012238
:10296000DFF85080D60300F0010031460590404664
:10297000FDF776FFDFF84090F71100223946484610
:10298000FDF76EFF0124694600254046CDE900644D
:10299000CDE90245FDF746FE00976946CDE90145C0
:1029A00048460395FDF73EFE07B0BDE8F083000002
:1029B000E0440258000802580020025870B50D4843
:1029C000002104230A4E16240522C0E90231012504
:1029D000C0E90441C0E906510162C0E90062FEF7A6
:1029E000ABF8002803D0BDE87040FDF74EBD70BDC8
:1029F000005000521C0000201848002110B5164C51
:102A00000C224FF4E1330460C0E90131C160C0E938
:102A100004128161C161016241628162FFF766FE59
:102A200008B1FDF732FD0D480021FFF739FE08B16E
:102A3000FDF72BFD09480021FFF70CFE08B1FDF75B
:102A400024FD0648FFF7E6FD002803D0BDE810404E
:102A5000FDF71BBD10BD0000004C004068000020C9
:102A6000FEE7FEE770472DE9F0434B6A4FF0406503
:102A70002BB1AA4203D004688B6A5B1E23618B6969
:102A8000002B68D00C6AB4B303688C68DC61CC6935
:102A9000FCB1D1E90B38D1F824C04E6B8F8A43EAE0
:102AA000080346EA0C0633430E6A43EA8743D1E93A
:102AB000037C43EA0C0333438E693B430F68234393
:102AC000046833433B4365E0006849688161BDE8C1
:102AD000F083D1E90B364F6A4C6B8D8A33433C430C
:102AE0000E6923430C6A43EA85438D6933430968C1
:102AF00023432B4362E0FFE7CC69B4F1000918D00F
:102B0000D1E90B484F6A4E6BB1F814C044EA08048F
:102B10003E430F683443CE6844EA8C44344344EA6D
:102B200009041C4303683C431443AA425C61CBD1B3
:102B3000CDE7D1E90B464F6A4D6BB1F814C0344371
:102B40003D4300682C43096844EA8C441C430C4311
:102B500014434461BBE70B6AABB303688C68DC6168
:102B6000CC69E4B1D1E90B38D1F824C04E6B8F8A1F
:102B700043EA080346EA0C0633430E6A43EA8743F6
:102B8000D1E9037C43EA0C0333438E693B4323437F
:102B9000046833431343AA42636195D197E7D1E9AF
:102BA0000B364F6A4C6B8D8A33433C430E6923438B
:102BB0000C6A43EA854389693343234300680B4326
:102BC0001343436183E7FFE7CC6984B1D1E90B3854
:102BD0004F6A4E6BB1F814C043EA08033E433343D7
:102BE000CE6843EA8C43334323430468D2E74C6AFC
:102BF000002C9DD0D1E90B368F8A4D6B0168334391
:102C000025432B4343EA8740104348615FE70000B8
:102C100030B595B00020012110240C900B020D93CB
:102C200005230E900A0610928D050190CDE90653FA
:102C30000F9001AA129041F2883313901490CDE9BD
:102C40000410CDE90214054807A9FDF7DBFE0028B2
:102C500001D06FF0020015B030BD00001C00002054
:102C600010B5FFF7ABFE00F031F80449884201D1FE
:102C7000002010BD4FF0FF3010BD00001740EF00E6
:102C800030B591B000204FF480744FF44061099446
:102C900065010B90EB2406958A030F900623089399
:102CA0000C921090CDE902040E900A91019000F070
:102CB0003BF8054801AA03A9FDF794FF002801D0BD
:102CC0006FF0050011B030BD1C00002010B590B0B1
:102CD0004FF4807300205C010693190403940322CF
:102CE00008909F230C90009341F288340B900D9034
:102CF00007900590CDE909120A4822466946FDF77A
:102D0000D7FE08480EA92246FEF71CF89DF8382089
:102D10009DF839009DF83A1010B0120442EA0020E4
:102D2000084310BD1C00002070B58EB041F28834FD
:102D300000204FF4807166220890CDE906100092C1
:102D400022460B9069460C900D90099005900E4814
:102D5000FDF7AEFE4FF0FF3560B9FFF759FF6FF09A
:102D6000020670B999200090074822466946FDF78F
:102D70009FFE10B128460EB070BDFFF749FF002836
:102D8000F9D03046F7E700001C0000202DE9F041A3
:102D9000984616460F460446069D08E0681C06D075
:102DA000FDF76AFDA0EB0800A8420AD84DB12068E3
:102DB0008068384000D00120B042EFD10020BDE84B
:102DC000F081042084F84100606C40F001006064F0
:102DD0000120F4E72DE9F047454D044689464FF0C0
:102DE000000A2868C04380070AD0414E283E306858
:102DF00020F080603060FDF73FFD0746B04608E0F8
:102E00000120BDE8F08700BFFDF736FDC01B02289A
:102E100067D8D8F800000001F6D4206829684FF47C
:102E2000FE0721F47C313E0241EA00302860207A1E
:102E3000A389B4F804C040022D4D2D495B1E227CAD
:102E4000ACF1010C1035091DA0F5007080B2521EC6
:102E5000CCF3080C07EA034340EA0C00184306EAE7
:102E60000262104328600868626920F0C0001043C5
:102E700008600A68A06922F0200202430A60281D47
:102E80000A6822F010020A6002684FF6F873E469DB
:102E90009A4342EAC40202600868B9F1000F40F0A8
:102EA00010020A6011D00868B9F1010F11D040F486
:102EB00000100860D8F80000444640F08060C8F870
:102EC0000000FDF7D9FC05460DE0086840F400203D
:102ED000EFE740F48010ECE7FDF7CEFC401B022842
:102EE00001D903208DE720680001F5D5504688E719
:102EF000284402582DE9F047454D044689464FF0D5
:102F0000000A2868C04380070AD0414E283E306836
:102F100020F080503060FDF7AFFC0746B04608E077
:102F20000120BDE8F08700BFFDF7A6FCC01B02280A
:102F300067D8D8F800008000F6D4208829684FF4BC
:102F4000FE0721F07C713E0241EA00502860207AA1
:102F5000A389B4F804C040022D4D2D495B1E227C8C
:102F6000ACF1010C1835091DA0F5007080B2521E9D
:102F7000CCF3080C07EA034340EA0C00184306EAC6
:102F80000262104328600868626920F440601043C0
:102F900008600A68A06922F4007202430A60281DD2
:102FA0000A6822F480720A6002684FF6F873E469D6
:102FB0009A4342EAC40202600868B9F1000F40F483
:102FC00080720A6011D00868B9F1010F11D040F089
:102FD00080700860D8F80000444640F08050C8F87F
:102FE0000000FDF749FC05460DE0086840F480004C
:102FF000EFE740F40000ECE7FDF73EFC401B022841
:1030000001D903208DE720688000F5D5504688E778
:10301000284402587047FDF735BC000070B59CB0DD
:103020004C216846FDF78EF9202113A8FDF78AF997
:103030000220FDF7BDFC2D4900242D480A6822F02E
:1030400001020A600A68026842F4404202600268B3
:1030500002F440421B9202689204FCD5254A136890
:1030600043F002031360126802F002021B9202682E
:1030700042F44042026002680A6842F001020A60BB
:10308000096801F001011B9101688904FCD50DF16B
:10309000280C022009900521C0228CE80700C303F8
:1030A0000F9008250D9001260E90CDE91054CDE922
:1030B000006368461294FEF7D9FF08B172B6FEE7C6
:1030C00040201A903F210301CDE916500322CDE99B
:1030D000180313AB13A883E816000421FEF7BEFC07
:1030E000002801D072B6FEE71CB070BD2C04005859
:1030F00018480258F44402582C48F0B52C4A01688C
:1031000041F470010160106800F00F00072804D23C
:10311000106820F00F00C01D106026490020254CCB
:1031200010340B68244D43F001030B6020600B68E2
:103130002B400B60136803F00F03072B04D91368AF
:1031400023F00F03DB1D13601A4C1C4A18341C4B70
:10315000261D371D2060174C1A4D28343060261D5F
:103160003860371D23603B1D35601C1D3A60251DEE
:103170002E1D1860331D22602860326018600A68B6
:103180000C4B114C22F4802260330A6018602068D6
:103190006FF30F00B0F1005F03D20C490120C1F8BA
:1031A000080143F2D2000A490860F0BD88ED00E052
:1031B00000200052004402587FEDF6EA800201012F
:1031C000000202020000FF010010005C00800051BC
:1031D0000040005230B5416EB9B101680D4B03F1AA
:1031E00008048A688968C2F34262490F5D5C615CC9
:1031F0002D01B5FBF1F1A0F86A10995CA25C090100
:10320000B1FBF2F1A0F8681030BD0121A0F86A10FE
:10321000F8E70000203B000890F82810C90706D006
:103220000168C36A4A6822F400321A434A6090F87F
:103230002810890706D50168036B4A6822F480329A
:103240001A434A6090F82810490706D50168436B75
:103250004A6822F480221A434A6090F8281009072D
:1032600006D50168836B4A6822F400421A434A601B
:1032700090F82810C90606D50168C36B8A6822F445
:1032800080521A438A6090F82810890606D5016892
:10329000036C8A6822F400521A438A6090F828105E
:1032A000490611D50168436C4A6822F480121A431A
:1032B0004A60416CB1F5801F06D10168836C4A6891
:1032C00022F4C0021A434A6090F82810090606D575
:1032D0000168C26C486820F40020104348607047C1
:1032E0002DE9F84300250446C0F89050FDF7C4FAD4
:1032F0008046206820266FF07E470068000713D5BF
:103300000022434631042046009700F03FFA58B1AE
:10331000216851E8000F20F0800041E80002002AF7
:10332000F6D1C4F8886021E020680068400722D503
:10333000002243464FF480012046009700F026FA11
:10334000C8B1206850E8001F21F4907140E80012D5
:10335000002AF6D12068083050E8001F21F0010152
:1033600040E80012002AF5D1C4F88C60032084F8EC
:103370008450BDE8F883C4F88860C4F88C60E566C2
:103380002567002084F88450F3E7000010B5026838
:1033900052E8001F21F4907142E80013002BF6D18F
:1033A0000E4B0268083252E8001F194042E8001430
:1033B000002CF6D1C16E012908D1026852E8001F25
:1033C00021F0100142E80013002BF6D10021202249
:1033D000C0F88C20C166416710BD0000FEFFFFEF02
:1033E0002DE9F04304468068D84E87B0D84B216859
:1033F000D4E90427D4F81CC010430A68002547EA22
:103400000C073843324002430A602068E268416892
:1034100021F44051114341602268A1699A4201D0D0
:10342000206A01439768DFF82CC3CB4ECB4807EAEC
:103430000C070F4397602168676ACA6A22F00F027F
:103440003A43CA622268B2420ED1006800F03800E6
:10345000182873D047DCB8B3082879D010286FD16A
:1034600078E028287ED17BE0BD498A4209D10068F6
:1034700000F00700062875D2DFE800F0546A6C6E91
:103480007072B8498A4209D1006800F00700062826
:1034900068D2DFE800F0475D5F616365B2498A4248
:1034A00009D1006800F0070006285BD2DFE800F0D1
:1034B0003A5052545658AD498A420BD1006800F038
:1034C000070006284ED200E010E0DFE800F02B41B4
:1034D00043454749A6498A420AD1006800F03800AE
:1034E000182839D0B7DD2028BBD13CE001203AE0D4
:1034F000A0498A4209D1006800F00700062831D2AD
:10350000DFE800F01026282A2C2E9B498A420BD196
:10351000006800F00700062824D2DFE800F0031955
:103520001B1D1F2100201EE09A421BD18B48001D4D
:10353000006800F00700062814D202E00CE007E063
:1035400010E0DFE800F0030507090B0D02200AE098
:10355000042008E0082006E0102004E0202002E01B
:10356000402000E080208549DFF814829A42854A95
:103570004FF400434FEA21174FF000064ED11028B8
:103580001AD006DC022809D004280BD008287CD1E8
:103590000DE020283ED0402877D13DE0FDF732FCF9
:1035A000014610E06846FDF73FFC01990BE003A8D7
:1035B000FDF7DCFC049906E01068800605D510686C
:1035C000C0F3C100C140002970D0606A676838F854
:1035D000102007EB4703B1FBF2F0834255D8B0EB64
:1035E000073F52D8002308461946FCF773FE0246EF
:1035F0007808130E120243EA012110183A4671416D
:103600000023FCF767FE604AA0F5407191423CD868
:1036100021688FE03946D8E71946D6E7D4F81CC0B0
:103620004FF6EF799C4546D1082819D005DC58B1F2
:1036300001280CD0042875D10DE0102815D02028C1
:1036400035D040286ED134E0FEF750FC01E0FEF7A3
:103650005FFC014610E06846FDF7E6FB01990BE0D0
:1036600003A8FDF783FC049906E01068800604D5E2
:103670001068C0F3C100C140C1B1636A606838F826
:103680001330B1FBF3F1490000E04BE001EB5001D6
:10369000B1FBF0F0A0F11001494543D84FF6F073AB
:1036A0002168C0F342021840104343E043E039462A
:1036B000E3E71946E1E7082819D005DC58B10128ED
:1036C0000CD004282ED10DE0102815D020282BD0A6
:1036D000402827D12AE0FEF709FC01E0FEF718FC9C
:1036E000014610E06846FDF79FFB01990BE003A837
:1036F000FDF73CFC049906E01068800604D51068CC
:10370000C0F3C100C140B1B1636A606838F81330DA
:10371000B1FBF3F101EB5001B1FBF0F0A0F11001AE
:10372000494505D9012506E03946EDE71946EBE79D
:10373000216880B2C8600120A4F86A00A4F868007B
:1037400028466667A66707B0BDE8F083F369FFCF38
:10375000000C0058FFF4FF110010014054440258BF
:103760000044004000480040004C00400050004031
:103770000014014000780040007C00400090D0031D
:10378000083B000800440258FFFC0F002DE9F047F9
:10379000994617460E460446089D4FF000082FE054
:1037A000681C2DD0FDF768F8A0EB0900A84214D8DA
:1037B0009DB120680168490722D5C169C94309073D
:1037C0000DD4082505622046FFF7E0FDC4F89050AF
:1037D000012084F88480BDE8F0870320FBE7C069FE
:1037E000C04300050CD421684FF4006008622046F5
:1037F000FFF7CCFD2021C4F8901084F88480ECE71A
:103800002068C06936EA000004D00020B842C7D062
:103810000020E0E70120F9E7FEE70000014A024945
:1038200000F024B8593900081800002009070028C2
:103830004FEA116104DB00F1E02080F800147047CA
:1038400000F00F0000F1E02080F8141D704702E046
:1038500008C8121F08C1002AFAD17047704700201B
:1038600001E001C1121F002AFBD170472DE9F04190
:1038700016460F460446002503E03946B047641C4F
:103880006D1C20780028F8D12846BDE8F081FCF7AF
:10389000FFBD0000224810B5FFF7C0FF2148FFF729
:1038A000BDFF2148FFF7BAFF2048FFF7B7FF2048C8
:1038B000FFF7B4FF1F48FFF7B1FF1F48FFF7AEFF48
:1038C0001E48FFF7ABFF1C48FFF7A8FF1948FFF79A
:1038D000A5FF1848FFF7A2FF1948FFF79FFF1948F7
:1038E000FFF79CFF1848FFF799FF1848FFF796FF6E
:1038F0001748FFF793FF1648FFF790FF1548FFF7AB
:103900008DFF1348FFF78AFF1148FFF787FF104824
:10391000FFF784FFBDE810400D48FFF77FBF0000B0
:10392000B83F0008583E0008B03E0008083F0008B5
:10393000603F0008F83C0008A03C0008483C000834
:10394000F03B0008003E0008A83D0008503D00087C
:10395000403B0008983B000813B50448FF230122B0
:103960006946FEF76DFF00981CBD0000680000204E
:1039700010B5FCF725FD72B64FF01040044A4168BF
:103980001160006880F30888BDE810400847000017
:103990001400002070B500F065F860B1094D4FF4D7
:1039A00000444FF4FA7621462846FCF751FF304692
:1039B000FFF76DFFF7E7FFF76DFFBDE87040FFF71A
:1039C000D7BF000000080258244B00201968890363
:1039D00011D4BFF34F8FBFF36F8F21490860BFF33E
:1039E0004F8FBFF36F8F196841F400311960BFF337
:1039F0004F8FBFF36F8F1968C90322D417497031F5
:103A00000860BFF34F8F081F43F6FF740068144D22
:103A10001035C0F34E31C0F3C90204EA4116104616
:103A200046EA80772F60401EFAD2491EF5D2BFF3D6
:103A30004F8F186840F480301860BFF34F8FBFF38A
:103A40006F8FFCF727FFFFF7E9FAFEF753FFFEF74A
:103A5000D3FFFEF7B3FFFFF79DFFFEE714ED00E095
:103A600050EF00E010B5FFF7FBF84FF0FF3408B15E
:103A700008A006E00CA0FFF7D1FEFFF701F920B186
:103A80000FA0FFF7CBFE204610BD15A0FFF7C6FE26
:103A9000002010BD205153504920496E69742065A3
:103AA0007272200D0A200000205153504920496EA7
:103AB00069742073756363657373200D0A000000D9
:103AC0002051535049205374617274204D656D6FBD
:103AD0007279204D617020657272200D0A200000FD
:103AE0002051535049205374617274204D656D6F9D
:103AF0007279204D61702073756363657373200D57
:103B00000A0D0A0D0A000000010002000400060070
:103B100008000A000C001000200040008000000196
:103B2000010101030701000008040204080101016A
:103B30000000000001020304010203040607080953
:103B4000272020202020202020202020202020206E
:103B50002020202020202020202020202020202065
:103B60002020202020202020202020202020202055
:103B70002020202020202020202020202020202045
:103B80002020202020202020202020202020202035
:103B9000202020200D0A00002720207777772E6E26
:103BA00065776269652E706963732020202020206C
:103BB0002020202020202020202020202020202005
:103BC00020202020202020202020202020202020F5
:103BD00020202020202020202020202020202020E5
:103BE0002020202020202020202020200D0A00003E
:103BF0002720202020423A3A3A3A42202020202012
:103C0000423A3A3A3A3A424F3A3A3A3A3A3A4F20F4
:103C100020204F3A3A3A3A3A3A4F4F3A3A3A3A3AF9
:103C20003A4F2020204F3A3A3A3A3A3A4F20202051
:103C30002020202020543A3A3A3A3A54202020209A
:103C4000202020200D0A00002720202020423A3A80
:103C50003A3A3A3A3A3A3A3A3A3A3A424220204FD3
:103C60003A3A3A3A3A4F20202020204F3A3A3A3A0C
:103C70003A4F4F3A3A3A3A3A4F20202020204F3AD2
:103C80003A3A3A3A4F2020202020202020543A3A35
:103C90003A3A3A5420202020202020200D0A00000B
:103CA0002720202020423A3A3A3A424242424242B7
:103CB0003A3A3A3A3A42204F3A3A3A3A3A4F202080
:103CC0002020204F3A3A3A3A3A4F4F3A3A3A3A3A63
:103CD0004F20202020204F3A3A3A3A3A4F202020D5
:103CE0002020202020543A3A3A3A3A5420202020EA
:103CF000202020200D0A00002720202020423A3AD0
:103D00003A3A422020202020423A3A3A3A3A424F68
:103D10003A3A3A3A3A4F20202020204F3A3A3A3A5B
:103D20003A4F4F3A3A3A3A3A4F20202020204F3A21
:103D30003A3A3A3A4F2020202020202020543A3A84
:103D40003A3A3A5420202020202020200D0A00005A
:103D5000272020423A3A3A3A3A3A3A3A3A3A3A3A02
:103D60003A3A3A3A4220202020204F4F3A3A3A3A03
:103D70003A3A3A3A3A4F4F2020202020204F4F3AEB
:103D80003A3A3A3A3A3A3A3A4F4F20202020202005
:103D9000202020543A3A3A3A3A3A3A3A3A542020D1
:103DA000202020200D0A0000272020423A3A3A3AEB
:103DB0003A3A3A3A3A3A3A3A3A3A3A3A3A4220208F
:103DC0004F4F3A3A3A3A3A3A3A3A3A3A3A3A3A4F14
:103DD0004F20204F4F3A3A3A3A3A3A3A3A3A3A3A38
:103DE0003A3A4F4F20202020202020543A3A3A3AA5
:103DF0003A3A3A3A3A542020202020200D0A000076
:103E000027202042423A3A3A3A3A42424242424219
:103E10003A3A3A3A3A3A424F3A3A3A3A3A3A3A4FD0
:103E20004F4F3A3A3A3A3A3A3A4F4F3A3A3A3A3A9E
:103E30003A3A4F4F4F3A3A3A3A3A3A3A4F202020DC
:103E400020202054543A3A3A3A3A3A3A54542020EC
:103E5000202020200D0A0000272020423A3A3A3A3A
:103E60003A3A3A3A3A3A3A3A3A3A3A3A42202020F8
:103E700020204F4F3A3A3A3A3A3A3A3A3A4F4F209C
:103E800020202020204F4F3A3A3A3A3A3A3A3A3AEA
:103E90004F4F202020543A3A3A3A3A3A3A3A3A3A8C
:103EA0003A3A3A3A3A3A3A3A3A3A3A540D0A000029
:103EB000272020423A3A3A3A3A3A42424242424271
:103EC0003A3A3A3A3A4220204F4F3A3A3A3A3A3A54
:103ED0003A3A3A3A3A3A3A4F4F20204F4F3A3A3A22
:103EE0003A3A3A3A3A3A3A3A3A3A4F4F20543A3A08
:103EF0003A3A3A3A3A3A3A3A3A3A3A3A3A3A3A3A22
:103F00003A3A3A540D0A000027202042423A3A3AFF
:103F10003A3A422020202020423A3A3A3A3A424F56
:103F20003A3A3A3A3A3A3A4F4F4F3A3A3A3A3A3AB2
:103F30003A4F4F3A3A3A3A3A3A3A4F4F4F3A3A3A78
:103F40003A3A3A3A4F543A3A3A3A3A54543A3A3A6E
:103F50003A3A3A3A54543A3A3A3A3A540D0A000044
:103F60002720202020423A3A3A3A4220202020209E
:103F7000423A3A3A3A3A424F3A3A3A3A3A3A4F2081
:103F800020204F3A3A3A3A3A3A4F4F3A3A3A3A3A86
:103F90003A4F2020204F3A3A3A3A3A3A4F54545442
:103FA0005454542020543A3A3A3A3A542020545423
:103FB000545454540D0A00002720204242424242E9
:103FC0004242424242424242424242422020202059
:103FD000202020204F4F4F4F4F4F4F4F4F2020203A
:103FE000202020202020204F4F4F4F4F4F4F4F4F2A
:103FF0002020202020545454545454545454545485
:104000005454545454545454545454540D0A0000A9
:1040100030400008000000201C0000004E3800085E
:104020004C4000081C000020E40800005E38000836
:104030000100000010000000000000000090D0030C
:0C4040000090D003000000000000000011
:040000050800029954
:00000001FF
